{"contracts/AssetToken.sol":{"AssetToken":{"abi":[{"inputs":[{"internalType":"string","name":"_name","type":"string"},{"internalType":"string","name":"_symbol","type":"string"},{"internalType":"uint256","name":"_assetPrice","type":"uint256"},{"internalType":"uint256","name":"_sharePrice","type":"uint256"},{"internalType":"string","name":"_metadataURI","type":"string"},{"internalType":"address","name":"_initialOwner","type":"address"}],"stateMutability":"nonpayable","type":"constructor"},{"inputs":[{"internalType":"address","name":"spender","type":"address"},{"internalType":"uint256","name":"allowance","type":"uint256"},{"internalType":"uint256","name":"needed","type":"uint256"}],"name":"ERC20InsufficientAllowance","type":"error"},{"inputs":[{"internalType":"address","name":"sender","type":"address"},{"internalType":"uint256","name":"balance","type":"uint256"},{"internalType":"uint256","name":"needed","type":"uint256"}],"name":"ERC20InsufficientBalance","type":"error"},{"inputs":[{"internalType":"address","name":"approver","type":"address"}],"name":"ERC20InvalidApprover","type":"error"},{"inputs":[{"internalType":"address","name":"receiver","type":"address"}],"name":"ERC20InvalidReceiver","type":"error"},{"inputs":[{"internalType":"address","name":"sender","type":"address"}],"name":"ERC20InvalidSender","type":"error"},{"inputs":[{"internalType":"address","name":"spender","type":"address"}],"name":"ERC20InvalidSpender","type":"error"},{"inputs":[{"internalType":"address","name":"owner","type":"address"}],"name":"OwnableInvalidOwner","type":"error"},{"inputs":[{"internalType":"address","name":"account","type":"address"}],"name":"OwnableUnauthorizedAccount","type":"error"},{"anonymous":false,"inputs":[{"indexed":true,"internalType":"address","name":"owner","type":"address"},{"indexed":true,"internalType":"address","name":"spender","type":"address"},{"indexed":false,"internalType":"uint256","name":"value","type":"uint256"}],"name":"Approval","type":"event"},{"anonymous":false,"inputs":[{"indexed":false,"internalType":"address","name":"investor","type":"address"},{"indexed":false,"internalType":"uint256","name":"shares","type":"uint256"},{"indexed":false,"internalType":"uint256","name":"amount","type":"uint256"}],"name":"AssetSold","type":"event"},{"anonymous":false,"inputs":[{"indexed":false,"internalType":"address","name":"investor","type":"address"},{"indexed":false,"internalType":"uint256","name":"amount","type":"uint256"}],"name":"DividendClaimed","type":"event"},{"anonymous":false,"inputs":[{"indexed":false,"internalType":"address","name":"owner","type":"address"},{"indexed":false,"internalType":"uint256","name":"amount","type":"uint256"}],"name":"FundsWithdrawn","type":"event"},{"anonymous":false,"inputs":[{"indexed":true,"internalType":"address","name":"previousOwner","type":"address"},{"indexed":true,"internalType":"address","name":"newOwner","type":"address"}],"name":"OwnershipTransferred","type":"event"},{"anonymous":false,"inputs":[{"indexed":false,"internalType":"uint256","name":"amount","type":"uint256"}],"name":"RentDeposited","type":"event"},{"anonymous":false,"inputs":[{"indexed":true,"internalType":"address","name":"from","type":"address"},{"indexed":true,"internalType":"address","name":"to","type":"address"},{"indexed":false,"internalType":"uint256","name":"value","type":"uint256"}],"name":"Transfer","type":"event"},{"inputs":[{"internalType":"address","name":"owner","type":"address"},{"internalType":"address","name":"spender","type":"address"}],"name":"allowance","outputs":[{"internalType":"uint256","name":"","type":"uint256"}],"stateMutability":"view","type":"function"},{"inputs":[{"internalType":"address","name":"spender","type":"address"},{"internalType":"uint256","name":"value","type":"uint256"}],"name":"approve","outputs":[{"internalType":"bool","name":"","type":"bool"}],"stateMutability":"nonpayable","type":"function"},{"inputs":[],"name":"assetPrice","outputs":[{"internalType":"uint256","name":"","type":"uint256"}],"stateMutability":"view","type":"function"},{"inputs":[{"internalType":"address","name":"account","type":"address"}],"name":"balanceOf","outputs":[{"internalType":"uint256","name":"","type":"uint256"}],"stateMutability":"view","type":"function"},{"inputs":[{"internalType":"uint256","name":"numberOfShares","type":"uint256"}],"name":"buyShares","outputs":[],"stateMutability":"payable","type":"function"},{"inputs":[],"name":"claimRent","outputs":[],"stateMutability":"nonpayable","type":"function"},{"inputs":[],"name":"decimals","outputs":[{"internalType":"uint8","name":"","type":"uint8"}],"stateMutability":"view","type":"function"},{"inputs":[],"name":"depositRent","outputs":[],"stateMutability":"payable","type":"function"},{"inputs":[{"internalType":"address","name":"user","type":"address"}],"name":"getClaimableRent","outputs":[{"internalType":"uint256","name":"","type":"uint256"}],"stateMutability":"view","type":"function"},{"inputs":[],"name":"maxSupply","outputs":[{"internalType":"uint256","name":"","type":"uint256"}],"stateMutability":"view","type":"function"},{"inputs":[],"name":"metadataURI","outputs":[{"internalType":"string","name":"","type":"string"}],"stateMutability":"view","type":"function"},{"inputs":[],"name":"name","outputs":[{"internalType":"string","name":"","type":"string"}],"stateMutability":"view","type":"function"},{"inputs":[],"name":"owner","outputs":[{"internalType":"address","name":"","type":"address"}],"stateMutability":"view","type":"function"},{"inputs":[],"name":"renounceOwnership","outputs":[],"stateMutability":"nonpayable","type":"function"},{"inputs":[],"name":"saleActive","outputs":[{"internalType":"bool","name":"","type":"bool"}],"stateMutability":"view","type":"function"},{"inputs":[],"name":"sharePrice","outputs":[{"internalType":"uint256","name":"","type":"uint256"}],"stateMutability":"view","type":"function"},{"inputs":[],"name":"symbol","outputs":[{"internalType":"string","name":"","type":"string"}],"stateMutability":"view","type":"function"},{"inputs":[],"name":"toggleSale","outputs":[],"stateMutability":"nonpayable","type":"function"},{"inputs":[],"name":"totalDividendsDistributed","outputs":[{"internalType":"uint256","name":"","type":"uint256"}],"stateMutability":"view","type":"function"},{"inputs":[],"name":"totalSupply","outputs":[{"internalType":"uint256","name":"","type":"uint256"}],"stateMutability":"view","type":"function"},{"inputs":[{"internalType":"address","name":"to","type":"address"},{"internalType":"uint256","name":"value","type":"uint256"}],"name":"transfer","outputs":[{"internalType":"bool","name":"","type":"bool"}],"stateMutability":"nonpayable","type":"function"},{"inputs":[{"internalType":"address","name":"from","type":"address"},{"internalType":"address","name":"to","type":"address"},{"internalType":"uint256","name":"value","type":"uint256"}],"name":"transferFrom","outputs":[{"internalType":"bool","name":"","type":"bool"}],"stateMutability":"nonpayable","type":"function"},{"inputs":[{"internalType":"address","name":"newOwner","type":"address"}],"name":"transferOwnership","outputs":[],"stateMutability":"nonpayable","type":"function"},{"inputs":[],"name":"withdrawFunds","outputs":[],"stateMutability":"nonpayable","type":"function"},{"inputs":[{"internalType":"address","name":"","type":"address"}],"name":"withdrawnDividends","outputs":[{"internalType":"uint256","name":"","type":"uint256"}],"stateMutability":"view","type":"function"}],"evm":{"bytecode":{"linkReferences":{},"object":"60806040526000600960006101000a81548160ff0219169083151502179055503480156200002c57600080fd5b50604051620026fa380380620026fa833981810160405281019062000052919062000456565b808686816003908162000066919062000790565b50806004908162000078919062000790565b505050600073ffffffffffffffffffffffffffffffffffffffff168173ffffffffffffffffffffffffffffffffffffffff1603620000f05760006040517f1e4fbdf7000000000000000000000000000000000000000000000000000000008152600401620000e7919062000888565b60405180910390fd5b62000101816200015d60201b60201c565b50836006819055508260078190555082846200011e9190620008d4565b60088190555081600a908162000135919062000790565b506001600960006101000a81548160ff0219169083151502179055505050505050506200090c565b6000600560009054906101000a900473ffffffffffffffffffffffffffffffffffffffff16905081600560006101000a81548173ffffffffffffffffffffffffffffffffffffffff021916908373ffffffffffffffffffffffffffffffffffffffff1602179055508173ffffffffffffffffffffffffffffffffffffffff168173ffffffffffffffffffffffffffffffffffffffff167f8be0079c531659141344cd1fd0a4f28419497f9722a3daafe3b4186f6b6457e060405160405180910390a35050565b6000604051905090565b600080fd5b600080fd5b600080fd5b600080fd5b6000601f19601f8301169050919050565b7f4e487b7100000000000000000000000000000000000000000000000000000000600052604160045260246000fd5b6200028c8262000241565b810181811067ffffffffffffffff82111715620002ae57620002ad62000252565b5b80604052505050565b6000620002c362000223565b9050620002d1828262000281565b919050565b600067ffffffffffffffff821115620002f457620002f362000252565b5b620002ff8262000241565b9050602081019050919050565b60005b838110156200032c5780820151818401526020810190506200030f565b60008484015250505050565b60006200034f6200034984620002d6565b620002b7565b9050828152602081018484840111156200036e576200036d6200023c565b5b6200037b8482856200030c565b509392505050565b600082601f8301126200039b576200039a62000237565b5b8151620003ad84826020860162000338565b91505092915050565b6000819050919050565b620003cb81620003b6565b8114620003d757600080fd5b50565b600081519050620003eb81620003c0565b92915050565b600073ffffffffffffffffffffffffffffffffffffffff82169050919050565b60006200041e82620003f1565b9050919050565b620004308162000411565b81146200043c57600080fd5b50565b600081519050620004508162000425565b92915050565b60008060008060008060c087890312156200047657620004756200022d565b5b600087015167ffffffffffffffff81111562000497576200049662000232565b5b620004a589828a0162000383565b965050602087015167ffffffffffffffff811115620004c957620004c862000232565b5b620004d789828a0162000383565b9550506040620004ea89828a01620003da565b9450506060620004fd89828a01620003da565b935050608087015167ffffffffffffffff81111562000521576200052062000232565b5b6200052f89828a0162000383565b92505060a06200054289828a016200043f565b9150509295509295509295565b600081519050919050565b7f4e487b7100000000000000000000000000000000000000000000000000000000600052602260045260246000fd5b60006002820490506001821680620005a257607f821691505b602082108103620005b857620005b76200055a565b5b50919050565b60008190508160005260206000209050919050565b60006020601f8301049050919050565b600082821b905092915050565b600060088302620006227fffffffffffffffffffffffffffffffffffffffffffffffffffffffffffffffff82620005e3565b6200062e8683620005e3565b95508019841693508086168417925050509392505050565b6000819050919050565b6000620006716200066b6200066584620003b6565b62000646565b620003b6565b9050919050565b6000819050919050565b6200068d8362000650565b620006a56200069c8262000678565b848454620005f0565b825550505050565b600090565b620006bc620006ad565b620006c981848462000682565b505050565b5b81811015620006f157620006e5600082620006b2565b600181019050620006cf565b5050565b601f82111562000740576200070a81620005be565b6200071584620005d3565b8101602085101562000725578190505b6200073d6200073485620005d3565b830182620006ce565b50505b505050565b600082821c905092915050565b6000620007656000198460080262000745565b1980831691505092915050565b600062000780838362000752565b9150826002028217905092915050565b6200079b826200054f565b67ffffffffffffffff811115620007b757620007b662000252565b5b620007c3825462000589565b620007d0828285620006f5565b600060209050601f831160018114620008085760008415620007f3578287015190505b620007ff858262000772565b8655506200086f565b601f1984166200081886620005be565b60005b8281101562000842578489015182556001820191506020850194506020810190506200081b565b868310156200086257848901516200085e601f89168262000752565b8355505b6001600288020188555050505b505050505050565b620008828162000411565b82525050565b60006020820190506200089f600083018462000877565b92915050565b7f4e487b7100000000000000000000000000000000000000000000000000000000600052601260045260246000fd5b6000620008e182620003b6565b9150620008ee83620003b6565b925082620009015762000900620008a5565b5b828204905092915050565b611dde806200091c6000396000f3fe6080604052600436106101665760003560e01c806385a6b3ae116100d1578063d1a93d181161008a578063dd62ed3e11610064578063dd62ed3e146104ed578063de3aaf611461052a578063eec361f514610567578063f2fde38b1461057157610166565b8063d1a93d181461047b578063d24378eb14610497578063d5abeb01146104c257610166565b806385a6b3ae1461037b57806387269729146103a65780638cbe5104146103d15780638da5cb5b146103e857806395d89b4114610413578063a9059cbb1461043e57610166565b806324600fc31161012357806324600fc3146102a3578063313ce567146102ba57806368428a1b146102e557806370a0823114610310578063715018a61461034d5780637d8966e41461036457610166565b806303ee438c1461016b57806306fdde0314610196578063095ea7b3146101c157806309b6a740146101fe57806318160ddd1461023b57806323b872dd14610266575b600080fd5b34801561017757600080fd5b5061018061059a565b60405161018d919061167e565b60405180910390f35b3480156101a257600080fd5b506101ab610628565b6040516101b8919061167e565b60405180910390f35b3480156101cd57600080fd5b506101e860048036038101906101e39190611739565b6106ba565b6040516101f59190611794565b60405180910390f35b34801561020a57600080fd5b50610225600480360381019061022091906117af565b6106dd565b60405161023291906117eb565b60405180910390f35b34801561024757600080fd5b50610250610795565b60405161025d91906117eb565b60405180910390f35b34801561027257600080fd5b5061028d60048036038101906102889190611806565b61079f565b60405161029a9190611794565b60405180910390f35b3480156102af57600080fd5b506102b86107ce565b005b3480156102c657600080fd5b506102cf6108af565b6040516102dc9190611875565b60405180910390f35b3480156102f157600080fd5b506102fa6108b8565b6040516103079190611794565b60405180910390f35b34801561031c57600080fd5b50610337600480360381019061033291906117af565b6108cb565b60405161034491906117eb565b60405180910390f35b34801561035957600080fd5b50610362610913565b005b34801561037057600080fd5b50610379610927565b005b34801561038757600080fd5b5061039061095b565b60405161039d91906117eb565b60405180910390f35b3480156103b257600080fd5b506103bb610961565b6040516103c891906117eb565b60405180910390f35b3480156103dd57600080fd5b506103e6610967565b005b3480156103f457600080fd5b506103fd610a90565b60405161040a919061189f565b60405180910390f35b34801561041f57600080fd5b50610428610aba565b604051610435919061167e565b60405180910390f35b34801561044a57600080fd5b5061046560048036038101906104609190611739565b610b4c565b6040516104729190611794565b60405180910390f35b610495600480360381019061049091906118ba565b610b6f565b005b3480156104a357600080fd5b506104ac610cb3565b6040516104b991906117eb565b60405180910390f35b3480156104ce57600080fd5b506104d7610cb9565b6040516104e491906117eb565b60405180910390f35b3480156104f957600080fd5b50610514600480360381019061050f91906118e7565b610cbf565b60405161052191906117eb565b60405180910390f35b34801561053657600080fd5b50610551600480360381019061054c91906117af565b610d46565b60405161055e91906117eb565b60405180910390f35b61056f610d5e565b005b34801561057d57600080fd5b50610598600480360381019061059391906117af565b610dfa565b005b600a80546105a790611956565b80601f01602080910402602001604051908101604052809291908181526020018280546105d390611956565b80156106205780601f106105f557610100808354040283529160200191610620565b820191906000526020600020905b81548152906001019060200180831161060357829003601f168201915b505050505081565b60606003805461063790611956565b80601f016020809104026020016040519081016040528092919081815260200182805461066390611956565b80156106b05780601f10610685576101008083540402835291602001916106b0565b820191906000526020600020905b81548152906001019060200180831161069357829003601f168201915b5050505050905090565b6000806106c5610e80565b90506106d2818585610e88565b600191505092915050565b6000806106e8610795565b036106f65760009050610790565b6000610701836108cb565b9050600061070d610795565b82600b5461071b91906119b6565b6107259190611a27565b90506000600c60008673ffffffffffffffffffffffffffffffffffffffff1673ffffffffffffffffffffffffffffffffffffffff16815260200190815260200160002054905080821161077e5760009350505050610790565b808261078a9190611a58565b93505050505b919050565b6000600254905090565b6000806107aa610e80565b90506107b7858285610e9a565b6107c2858585610f2f565b60019150509392505050565b6107d6611023565b60004790506000811161081e576040517f08c379a000000000000000000000000000000000000000000000000000000000815260040161081590611ad8565b60405180910390fd5b610826610a90565b73ffffffffffffffffffffffffffffffffffffffff166108fc829081150290604051600060405180830381858888f1935050505015801561086b573d6000803e3d6000fd5b507feaff4b37086828766ad3268786972c0cd24259d4c87a80f9d3963a3c3d999b0d610895610a90565b826040516108a4929190611af8565b60405180910390a150565b60006012905090565b600960009054906101000a900460ff1681565b60008060008373ffffffffffffffffffffffffffffffffffffffff1673ffffffffffffffffffffffffffffffffffffffff168152602001908152602001600020549050919050565b61091b611023565b61092560006110aa565b565b61092f611023565b600960009054906101000a900460ff1615600960006101000a81548160ff021916908315150217905550565b600b5481565b60075481565b6000610972336106dd565b9050600081116109b7576040517f08c379a00000000000000000000000000000000000000000000000000000000081526004016109ae90611b6d565b60405180910390fd5b80600c60003373ffffffffffffffffffffffffffffffffffffffff1673ffffffffffffffffffffffffffffffffffffffff1681526020019081526020016000206000828254610a069190611b8d565b925050819055503373ffffffffffffffffffffffffffffffffffffffff166108fc829081150290604051600060405180830381858888f19350505050158015610a53573d6000803e3d6000fd5b507f5efa67896a23b651b741b525caacba039c00ca7853be3de8eb1f4269e8669c563382604051610a85929190611af8565b60405180910390a150565b6000600560009054906101000a900473ffffffffffffffffffffffffffffffffffffffff16905090565b606060048054610ac990611956565b80601f0160208091040260200160405190810160405280929190818152602001828054610af590611956565b8015610b425780601f10610b1757610100808354040283529160200191610b42565b820191906000526020600020905b815481529060010190602001808311610b2557829003601f168201915b5050505050905090565b600080610b57610e80565b9050610b64818585610f2f565b600191505092915050565b600960009054906101000a900460ff16610bbe576040517f08c379a0000000000000000000000000000000000000000000000000000000008152600401610bb590611c0d565b60405180910390fd5b60085481610bca610795565b610bd49190611b8d565b1115610c15576040517f08c379a0000000000000000000000000000000000000000000000000000000008152600401610c0c90611c79565b60405180910390fd5b600060075482610c2591906119b6565b905080341015610c6a576040517f08c379a0000000000000000000000000000000000000000000000000000000008152600401610c6190611ce5565b60405180910390fd5b610c743383611170565b7f247dc2e589ef4622e21f97439ad5d61b6fe14885a30102fa2dcde37f197db045338383604051610ca793929190611d05565b60405180910390a15050565b60065481565b60085481565b6000600160008473ffffffffffffffffffffffffffffffffffffffff1673ffffffffffffffffffffffffffffffffffffffff16815260200190815260200160002060008373ffffffffffffffffffffffffffffffffffffffff1673ffffffffffffffffffffffffffffffffffffffff16815260200190815260200160002054905092915050565b600c6020528060005260406000206000915090505481565b6000610d68610795565b11610da8576040517f08c379a0000000000000000000000000000000000000000000000000000000008152600401610d9f90611d88565b60405180910390fd5b34600b6000828254610dba9190611b8d565b925050819055507f0554f6ce12b72bcfc5749cb0bd2942ee975da3632a583f00b17949d949943ec334604051610df091906117eb565b60405180910390a1565b610e02611023565b600073ffffffffffffffffffffffffffffffffffffffff168173ffffffffffffffffffffffffffffffffffffffff1603610e745760006040517f1e4fbdf7000000000000000000000000000000000000000000000000000000008152600401610e6b919061189f565b60405180910390fd5b610e7d816110aa565b50565b600033905090565b610e9583838360016111f2565b505050565b6000610ea68484610cbf565b90507fffffffffffffffffffffffffffffffffffffffffffffffffffffffffffffffff811015610f295781811015610f19578281836040517ffb8f41b2000000000000000000000000000000000000000000000000000000008152600401610f1093929190611d05565b60405180910390fd5b610f28848484840360006111f2565b5b50505050565b600073ffffffffffffffffffffffffffffffffffffffff168373ffffffffffffffffffffffffffffffffffffffff1603610fa15760006040517f96c6fd1e000000000000000000000000000000000000000000000000000000008152600401610f98919061189f565b60405180910390fd5b600073ffffffffffffffffffffffffffffffffffffffff168273ffffffffffffffffffffffffffffffffffffffff16036110135760006040517fec442f0500000000000000000000000000000000000000000000000000000000815260040161100a919061189f565b60405180910390fd5b61101e8383836113c9565b505050565b61102b610e80565b73ffffffffffffffffffffffffffffffffffffffff16611049610a90565b73ffffffffffffffffffffffffffffffffffffffff16146110a85761106c610e80565b6040517f118cdaa700000000000000000000000000000000000000000000000000000000815260040161109f919061189f565b60405180910390fd5b565b6000600560009054906101000a900473ffffffffffffffffffffffffffffffffffffffff16905081600560006101000a81548173ffffffffffffffffffffffffffffffffffffffff021916908373ffffffffffffffffffffffffffffffffffffffff1602179055508173ffffffffffffffffffffffffffffffffffffffff168173ffffffffffffffffffffffffffffffffffffffff167f8be0079c531659141344cd1fd0a4f28419497f9722a3daafe3b4186f6b6457e060405160405180910390a35050565b600073ffffffffffffffffffffffffffffffffffffffff168273ffffffffffffffffffffffffffffffffffffffff16036111e25760006040517fec442f050000000000000000000000000000000000000000000000000000000081526004016111d9919061189f565b60405180910390fd5b6111ee600083836113c9565b5050565b600073ffffffffffffffffffffffffffffffffffffffff168473ffffffffffffffffffffffffffffffffffffffff16036112645760006040517fe602df0500000000000000000000000000000000000000000000000000000000815260040161125b919061189f565b60405180910390fd5b600073ffffffffffffffffffffffffffffffffffffffff168373ffffffffffffffffffffffffffffffffffffffff16036112d65760006040517f94280d620000000000000000000000000000000000000000000000000000000081526004016112cd919061189f565b60405180910390fd5b81600160008673ffffffffffffffffffffffffffffffffffffffff1673ffffffffffffffffffffffffffffffffffffffff16815260200190815260200160002060008573ffffffffffffffffffffffffffffffffffffffff1673ffffffffffffffffffffffffffffffffffffffff1681526020019081526020016000208190555080156113c3578273ffffffffffffffffffffffffffffffffffffffff168473ffffffffffffffffffffffffffffffffffffffff167f8c5be1e5ebec7d5bd14f71427d1e84f3dd0314c0f7b2291e5b200ac8c7c3b925846040516113ba91906117eb565b60405180910390a35b50505050565b600073ffffffffffffffffffffffffffffffffffffffff168373ffffffffffffffffffffffffffffffffffffffff160361141b57806002600082825461140f9190611b8d565b925050819055506114ee565b60008060008573ffffffffffffffffffffffffffffffffffffffff1673ffffffffffffffffffffffffffffffffffffffff168152602001908152602001600020549050818110156114a7578381836040517fe450d38c00000000000000000000000000000000000000000000000000000000815260040161149e93929190611d05565b60405180910390fd5b8181036000808673ffffffffffffffffffffffffffffffffffffffff1673ffffffffffffffffffffffffffffffffffffffff16815260200190815260200160002081905550505b600073ffffffffffffffffffffffffffffffffffffffff168273ffffffffffffffffffffffffffffffffffffffff16036115375780600260008282540392505081905550611584565b806000808473ffffffffffffffffffffffffffffffffffffffff1673ffffffffffffffffffffffffffffffffffffffff168152602001908152602001600020600082825401925050819055505b8173ffffffffffffffffffffffffffffffffffffffff168373ffffffffffffffffffffffffffffffffffffffff167fddf252ad1be2c89b69c2b068fc378daa952ba7f163c4a11628f55a4df523b3ef836040516115e191906117eb565b60405180910390a3505050565b600081519050919050565b600082825260208201905092915050565b60005b8381101561162857808201518184015260208101905061160d565b60008484015250505050565b6000601f19601f8301169050919050565b6000611650826115ee565b61165a81856115f9565b935061166a81856020860161160a565b61167381611634565b840191505092915050565b600060208201905081810360008301526116988184611645565b905092915050565b600080fd5b600073ffffffffffffffffffffffffffffffffffffffff82169050919050565b60006116d0826116a5565b9050919050565b6116e0816116c5565b81146116eb57600080fd5b50565b6000813590506116fd816116d7565b92915050565b6000819050919050565b61171681611703565b811461172157600080fd5b50565b6000813590506117338161170d565b92915050565b600080604083850312156117505761174f6116a0565b5b600061175e858286016116ee565b925050602061176f85828601611724565b9150509250929050565b60008115159050919050565b61178e81611779565b82525050565b60006020820190506117a96000830184611785565b92915050565b6000602082840312156117c5576117c46116a0565b5b60006117d3848285016116ee565b91505092915050565b6117e581611703565b82525050565b600060208201905061180060008301846117dc565b92915050565b60008060006060848603121561181f5761181e6116a0565b5b600061182d868287016116ee565b935050602061183e868287016116ee565b925050604061184f86828701611724565b9150509250925092565b600060ff82169050919050565b61186f81611859565b82525050565b600060208201905061188a6000830184611866565b92915050565b611899816116c5565b82525050565b60006020820190506118b46000830184611890565b92915050565b6000602082840312156118d0576118cf6116a0565b5b60006118de84828501611724565b91505092915050565b600080604083850312156118fe576118fd6116a0565b5b600061190c858286016116ee565b925050602061191d858286016116ee565b9150509250929050565b7f4e487b7100000000000000000000000000000000000000000000000000000000600052602260045260246000fd5b6000600282049050600182168061196e57607f821691505b60208210810361198157611980611927565b5b50919050565b7f4e487b7100000000000000000000000000000000000000000000000000000000600052601160045260246000fd5b60006119c182611703565b91506119cc83611703565b92508282026119da81611703565b915082820484148315176119f1576119f0611987565b5b5092915050565b7f4e487b7100000000000000000000000000000000000000000000000000000000600052601260045260246000fd5b6000611a3282611703565b9150611a3d83611703565b925082611a4d57611a4c6119f8565b5b828204905092915050565b6000611a6382611703565b9150611a6e83611703565b9250828203905081811115611a8657611a85611987565b5b92915050565b7f4e6f2066756e6473000000000000000000000000000000000000000000000000600082015250565b6000611ac26008836115f9565b9150611acd82611a8c565b602082019050919050565b60006020820190508181036000830152611af181611ab5565b9050919050565b6000604082019050611b0d6000830185611890565b611b1a60208301846117dc565b9392505050565b7f4e6f2072656e7420746f20636c61696d00000000000000000000000000000000600082015250565b6000611b576010836115f9565b9150611b6282611b21565b602082019050919050565b60006020820190508181036000830152611b8681611b4a565b9050919050565b6000611b9882611703565b9150611ba383611703565b9250828201905080821115611bbb57611bba611987565b5b92915050565b7f53616c65206973204e4f54206163746976650000000000000000000000000000600082015250565b6000611bf76012836115f9565b9150611c0282611bc1565b602082019050919050565b60006020820190508181036000830152611c2681611bea565b9050919050565b7f536f6c64206f7574000000000000000000000000000000000000000000000000600082015250565b6000611c636008836115f9565b9150611c6e82611c2d565b602082019050919050565b60006020820190508181036000830152611c9281611c56565b9050919050565b7f4e6f7420656e6f756768204554482073656e7400000000000000000000000000600082015250565b6000611ccf6013836115f9565b9150611cda82611c99565b602082019050919050565b60006020820190508181036000830152611cfe81611cc2565b9050919050565b6000606082019050611d1a6000830186611890565b611d2760208301856117dc565b611d3460408301846117dc565b949350505050565b7f4e6f207368617265686f6c646572732079657400000000000000000000000000600082015250565b6000611d726013836115f9565b9150611d7d82611d3c565b602082019050919050565b60006020820190508181036000830152611da181611d65565b905091905056fea26469706673582212207c5785ead224d208701902854e3e99b23e084813a66c0395c5f633ee3b57f4f164736f6c63430008140033","opcodes":"PUSH1 0x80 PUSH1 0x40 MSTORE PUSH1 0x0 PUSH1 0x9 PUSH1 0x0 PUSH2 0x100 EXP DUP2 SLOAD DUP2 PUSH1 0xFF MUL NOT AND SWAP1 DUP4 ISZERO ISZERO MUL OR SWAP1 SSTORE POP CALLVALUE DUP1 ISZERO PUSH3 0x2C JUMPI PUSH1 0x0 DUP1 REVERT JUMPDEST POP PUSH1 0x40 MLOAD PUSH3 0x26FA CODESIZE SUB DUP1 PUSH3 0x26FA DUP4 CODECOPY DUP2 DUP2 ADD PUSH1 0x40 MSTORE DUP2 ADD SWAP1 PUSH3 0x52 SWAP2 SWAP1 PUSH3 0x456 JUMP JUMPDEST DUP1 DUP7 DUP7 DUP2 PUSH1 0x3 SWAP1 DUP2 PUSH3 0x66 SWAP2 SWAP1 PUSH3 0x790 JUMP JUMPDEST POP DUP1 PUSH1 0x4 SWAP1 DUP2 PUSH3 0x78 SWAP2 SWAP1 PUSH3 0x790 JUMP JUMPDEST POP POP POP PUSH1 0x0 PUSH20 0xFFFFFFFFFFFFFFFFFFFFFFFFFFFFFFFFFFFFFFFF AND DUP2 PUSH20 0xFFFFFFFFFFFFFFFFFFFFFFFFFFFFFFFFFFFFFFFF AND SUB PUSH3 0xF0 JUMPI PUSH1 0x0 PUSH1 0x40 MLOAD PUSH32 0x1E4FBDF700000000000000000000000000000000000000000000000000000000 DUP2 MSTORE PUSH1 0x4 ADD PUSH3 0xE7 SWAP2 SWAP1 PUSH3 0x888 JUMP JUMPDEST PUSH1 0x40 MLOAD DUP1 SWAP2 SUB SWAP1 REVERT JUMPDEST PUSH3 0x101 DUP2 PUSH3 0x15D PUSH1 0x20 SHL PUSH1 0x20 SHR JUMP JUMPDEST POP DUP4 PUSH1 0x6 DUP2 SWAP1 SSTORE POP DUP3 PUSH1 0x7 DUP2 SWAP1 SSTORE POP DUP3 DUP5 PUSH3 0x11E SWAP2 SWAP1 PUSH3 0x8D4 JUMP JUMPDEST PUSH1 0x8 DUP2 SWAP1 SSTORE POP DUP2 PUSH1 0xA SWAP1 DUP2 PUSH3 0x135 SWAP2 SWAP1 PUSH3 0x790 JUMP JUMPDEST POP PUSH1 0x1 PUSH1 0x9 PUSH1 0x0 PUSH2 0x100 EXP DUP2 SLOAD DUP2 PUSH1 0xFF MUL NOT AND SWAP1 DUP4 ISZERO ISZERO MUL OR SWAP1 SSTORE POP POP POP POP POP POP POP PUSH3 0x90C JUMP JUMPDEST PUSH1 0x0 PUSH1 0x5 PUSH1 0x0 SWAP1 SLOAD SWAP1 PUSH2 0x100 EXP SWAP1 DIV PUSH20 0xFFFFFFFFFFFFFFFFFFFFFFFFFFFFFFFFFFFFFFFF AND SWAP1 POP DUP2 PUSH1 0x5 PUSH1 0x0 PUSH2 0x100 EXP DUP2 SLOAD DUP2 PUSH20 0xFFFFFFFFFFFFFFFFFFFFFFFFFFFFFFFFFFFFFFFF MUL NOT AND SWAP1 DUP4 PUSH20 0xFFFFFFFFFFFFFFFFFFFFFFFFFFFFFFFFFFFFFFFF AND MUL OR SWAP1 SSTORE POP DUP2 PUSH20 0xFFFFFFFFFFFFFFFFFFFFFFFFFFFFFFFFFFFFFFFF AND DUP2 PUSH20 0xFFFFFFFFFFFFFFFFFFFFFFFFFFFFFFFFFFFFFFFF AND PUSH32 0x8BE0079C531659141344CD1FD0A4F28419497F9722A3DAAFE3B4186F6B6457E0 PUSH1 0x40 MLOAD PUSH1 0x40 MLOAD DUP1 SWAP2 SUB SWAP1 LOG3 POP POP JUMP JUMPDEST PUSH1 0x0 PUSH1 0x40 MLOAD SWAP1 POP SWAP1 JUMP JUMPDEST PUSH1 0x0 DUP1 REVERT JUMPDEST PUSH1 0x0 DUP1 REVERT JUMPDEST PUSH1 0x0 DUP1 REVERT JUMPDEST PUSH1 0x0 DUP1 REVERT JUMPDEST PUSH1 0x0 PUSH1 0x1F NOT PUSH1 0x1F DUP4 ADD AND SWAP1 POP SWAP2 SWAP1 POP JUMP JUMPDEST PUSH32 0x4E487B7100000000000000000000000000000000000000000000000000000000 PUSH1 0x0 MSTORE PUSH1 0x41 PUSH1 0x4 MSTORE PUSH1 0x24 PUSH1 0x0 REVERT JUMPDEST PUSH3 0x28C DUP3 PUSH3 0x241 JUMP JUMPDEST DUP2 ADD DUP2 DUP2 LT PUSH8 0xFFFFFFFFFFFFFFFF DUP3 GT OR ISZERO PUSH3 0x2AE JUMPI PUSH3 0x2AD PUSH3 0x252 JUMP JUMPDEST JUMPDEST DUP1 PUSH1 0x40 MSTORE POP POP POP JUMP JUMPDEST PUSH1 0x0 PUSH3 0x2C3 PUSH3 0x223 JUMP JUMPDEST SWAP1 POP PUSH3 0x2D1 DUP3 DUP3 PUSH3 0x281 JUMP JUMPDEST SWAP2 SWAP1 POP JUMP JUMPDEST PUSH1 0x0 PUSH8 0xFFFFFFFFFFFFFFFF DUP3 GT ISZERO PUSH3 0x2F4 JUMPI PUSH3 0x2F3 PUSH3 0x252 JUMP JUMPDEST JUMPDEST PUSH3 0x2FF DUP3 PUSH3 0x241 JUMP JUMPDEST SWAP1 POP PUSH1 0x20 DUP2 ADD SWAP1 POP SWAP2 SWAP1 POP JUMP JUMPDEST PUSH1 0x0 JUMPDEST DUP4 DUP2 LT ISZERO PUSH3 0x32C JUMPI DUP1 DUP3 ADD MLOAD DUP2 DUP5 ADD MSTORE PUSH1 0x20 DUP2 ADD SWAP1 POP PUSH3 0x30F JUMP JUMPDEST PUSH1 0x0 DUP5 DUP5 ADD MSTORE POP POP POP POP JUMP JUMPDEST PUSH1 0x0 PUSH3 0x34F PUSH3 0x349 DUP5 PUSH3 0x2D6 JUMP JUMPDEST PUSH3 0x2B7 JUMP JUMPDEST SWAP1 POP DUP3 DUP2 MSTORE PUSH1 0x20 DUP2 ADD DUP5 DUP5 DUP5 ADD GT ISZERO PUSH3 0x36E JUMPI PUSH3 0x36D PUSH3 0x23C JUMP JUMPDEST JUMPDEST PUSH3 0x37B DUP5 DUP3 DUP6 PUSH3 0x30C JUMP JUMPDEST POP SWAP4 SWAP3 POP POP POP JUMP JUMPDEST PUSH1 0x0 DUP3 PUSH1 0x1F DUP4 ADD SLT PUSH3 0x39B JUMPI PUSH3 0x39A PUSH3 0x237 JUMP JUMPDEST JUMPDEST DUP2 MLOAD PUSH3 0x3AD DUP5 DUP3 PUSH1 0x20 DUP7 ADD PUSH3 0x338 JUMP JUMPDEST SWAP2 POP POP SWAP3 SWAP2 POP POP JUMP JUMPDEST PUSH1 0x0 DUP2 SWAP1 POP SWAP2 SWAP1 POP JUMP JUMPDEST PUSH3 0x3CB DUP2 PUSH3 0x3B6 JUMP JUMPDEST DUP2 EQ PUSH3 0x3D7 JUMPI PUSH1 0x0 DUP1 REVERT JUMPDEST POP JUMP JUMPDEST PUSH1 0x0 DUP2 MLOAD SWAP1 POP PUSH3 0x3EB DUP2 PUSH3 0x3C0 JUMP JUMPDEST SWAP3 SWAP2 POP POP JUMP JUMPDEST PUSH1 0x0 PUSH20 0xFFFFFFFFFFFFFFFFFFFFFFFFFFFFFFFFFFFFFFFF DUP3 AND SWAP1 POP SWAP2 SWAP1 POP JUMP JUMPDEST PUSH1 0x0 PUSH3 0x41E DUP3 PUSH3 0x3F1 JUMP JUMPDEST SWAP1 POP SWAP2 SWAP1 POP JUMP JUMPDEST PUSH3 0x430 DUP2 PUSH3 0x411 JUMP JUMPDEST DUP2 EQ PUSH3 0x43C JUMPI PUSH1 0x0 DUP1 REVERT JUMPDEST POP JUMP JUMPDEST PUSH1 0x0 DUP2 MLOAD SWAP1 POP PUSH3 0x450 DUP2 PUSH3 0x425 JUMP JUMPDEST SWAP3 SWAP2 POP POP JUMP JUMPDEST PUSH1 0x0 DUP1 PUSH1 0x0 DUP1 PUSH1 0x0 DUP1 PUSH1 0xC0 DUP8 DUP10 SUB SLT ISZERO PUSH3 0x476 JUMPI PUSH3 0x475 PUSH3 0x22D JUMP JUMPDEST JUMPDEST PUSH1 0x0 DUP8 ADD MLOAD PUSH8 0xFFFFFFFFFFFFFFFF DUP2 GT ISZERO PUSH3 0x497 JUMPI PUSH3 0x496 PUSH3 0x232 JUMP JUMPDEST JUMPDEST PUSH3 0x4A5 DUP10 DUP3 DUP11 ADD PUSH3 0x383 JUMP JUMPDEST SWAP7 POP POP PUSH1 0x20 DUP8 ADD MLOAD PUSH8 0xFFFFFFFFFFFFFFFF DUP2 GT ISZERO PUSH3 0x4C9 JUMPI PUSH3 0x4C8 PUSH3 0x232 JUMP JUMPDEST JUMPDEST PUSH3 0x4D7 DUP10 DUP3 DUP11 ADD PUSH3 0x383 JUMP JUMPDEST SWAP6 POP POP PUSH1 0x40 PUSH3 0x4EA DUP10 DUP3 DUP11 ADD PUSH3 0x3DA JUMP JUMPDEST SWAP5 POP POP PUSH1 0x60 PUSH3 0x4FD DUP10 DUP3 DUP11 ADD PUSH3 0x3DA JUMP JUMPDEST SWAP4 POP POP PUSH1 0x80 DUP8 ADD MLOAD PUSH8 0xFFFFFFFFFFFFFFFF DUP2 GT ISZERO PUSH3 0x521 JUMPI PUSH3 0x520 PUSH3 0x232 JUMP JUMPDEST JUMPDEST PUSH3 0x52F DUP10 DUP3 DUP11 ADD PUSH3 0x383 JUMP JUMPDEST SWAP3 POP POP PUSH1 0xA0 PUSH3 0x542 DUP10 DUP3 DUP11 ADD PUSH3 0x43F JUMP JUMPDEST SWAP2 POP POP SWAP3 SWAP6 POP SWAP3 SWAP6 POP SWAP3 SWAP6 JUMP JUMPDEST PUSH1 0x0 DUP2 MLOAD SWAP1 POP SWAP2 SWAP1 POP JUMP JUMPDEST PUSH32 0x4E487B7100000000000000000000000000000000000000000000000000000000 PUSH1 0x0 MSTORE PUSH1 0x22 PUSH1 0x4 MSTORE PUSH1 0x24 PUSH1 0x0 REVERT JUMPDEST PUSH1 0x0 PUSH1 0x2 DUP3 DIV SWAP1 POP PUSH1 0x1 DUP3 AND DUP1 PUSH3 0x5A2 JUMPI PUSH1 0x7F DUP3 AND SWAP2 POP JUMPDEST PUSH1 0x20 DUP3 LT DUP2 SUB PUSH3 0x5B8 JUMPI PUSH3 0x5B7 PUSH3 0x55A JUMP JUMPDEST JUMPDEST POP SWAP2 SWAP1 POP JUMP JUMPDEST PUSH1 0x0 DUP2 SWAP1 POP DUP2 PUSH1 0x0 MSTORE PUSH1 0x20 PUSH1 0x0 KECCAK256 SWAP1 POP SWAP2 SWAP1 POP JUMP JUMPDEST PUSH1 0x0 PUSH1 0x20 PUSH1 0x1F DUP4 ADD DIV SWAP1 POP SWAP2 SWAP1 POP JUMP JUMPDEST PUSH1 0x0 DUP3 DUP3 SHL SWAP1 POP SWAP3 SWAP2 POP POP JUMP JUMPDEST PUSH1 0x0 PUSH1 0x8 DUP4 MUL PUSH3 0x622 PUSH32 0xFFFFFFFFFFFFFFFFFFFFFFFFFFFFFFFFFFFFFFFFFFFFFFFFFFFFFFFFFFFFFFFF DUP3 PUSH3 0x5E3 JUMP JUMPDEST PUSH3 0x62E DUP7 DUP4 PUSH3 0x5E3 JUMP JUMPDEST SWAP6 POP DUP1 NOT DUP5 AND SWAP4 POP DUP1 DUP7 AND DUP5 OR SWAP3 POP POP POP SWAP4 SWAP3 POP POP POP JUMP JUMPDEST PUSH1 0x0 DUP2 SWAP1 POP SWAP2 SWAP1 POP JUMP JUMPDEST PUSH1 0x0 PUSH3 0x671 PUSH3 0x66B PUSH3 0x665 DUP5 PUSH3 0x3B6 JUMP JUMPDEST PUSH3 0x646 JUMP JUMPDEST PUSH3 0x3B6 JUMP JUMPDEST SWAP1 POP SWAP2 SWAP1 POP JUMP JUMPDEST PUSH1 0x0 DUP2 SWAP1 POP SWAP2 SWAP1 POP JUMP JUMPDEST PUSH3 0x68D DUP4 PUSH3 0x650 JUMP JUMPDEST PUSH3 0x6A5 PUSH3 0x69C DUP3 PUSH3 0x678 JUMP JUMPDEST DUP5 DUP5 SLOAD PUSH3 0x5F0 JUMP JUMPDEST DUP3 SSTORE POP POP POP POP JUMP JUMPDEST PUSH1 0x0 SWAP1 JUMP JUMPDEST PUSH3 0x6BC PUSH3 0x6AD JUMP JUMPDEST PUSH3 0x6C9 DUP2 DUP5 DUP5 PUSH3 0x682 JUMP JUMPDEST POP POP POP JUMP JUMPDEST JUMPDEST DUP2 DUP2 LT ISZERO PUSH3 0x6F1 JUMPI PUSH3 0x6E5 PUSH1 0x0 DUP3 PUSH3 0x6B2 JUMP JUMPDEST PUSH1 0x1 DUP2 ADD SWAP1 POP PUSH3 0x6CF JUMP JUMPDEST POP POP JUMP JUMPDEST PUSH1 0x1F DUP3 GT ISZERO PUSH3 0x740 JUMPI PUSH3 0x70A DUP2 PUSH3 0x5BE JUMP JUMPDEST PUSH3 0x715 DUP5 PUSH3 0x5D3 JUMP JUMPDEST DUP2 ADD PUSH1 0x20 DUP6 LT ISZERO PUSH3 0x725 JUMPI DUP2 SWAP1 POP JUMPDEST PUSH3 0x73D PUSH3 0x734 DUP6 PUSH3 0x5D3 JUMP JUMPDEST DUP4 ADD DUP3 PUSH3 0x6CE JUMP JUMPDEST POP POP JUMPDEST POP POP POP JUMP JUMPDEST PUSH1 0x0 DUP3 DUP3 SHR SWAP1 POP SWAP3 SWAP2 POP POP JUMP JUMPDEST PUSH1 0x0 PUSH3 0x765 PUSH1 0x0 NOT DUP5 PUSH1 0x8 MUL PUSH3 0x745 JUMP JUMPDEST NOT DUP1 DUP4 AND SWAP2 POP POP SWAP3 SWAP2 POP POP JUMP JUMPDEST PUSH1 0x0 PUSH3 0x780 DUP4 DUP4 PUSH3 0x752 JUMP JUMPDEST SWAP2 POP DUP3 PUSH1 0x2 MUL DUP3 OR SWAP1 POP SWAP3 SWAP2 POP POP JUMP JUMPDEST PUSH3 0x79B DUP3 PUSH3 0x54F JUMP JUMPDEST PUSH8 0xFFFFFFFFFFFFFFFF DUP2 GT ISZERO PUSH3 0x7B7 JUMPI PUSH3 0x7B6 PUSH3 0x252 JUMP JUMPDEST JUMPDEST PUSH3 0x7C3 DUP3 SLOAD PUSH3 0x589 JUMP JUMPDEST PUSH3 0x7D0 DUP3 DUP3 DUP6 PUSH3 0x6F5 JUMP JUMPDEST PUSH1 0x0 PUSH1 0x20 SWAP1 POP PUSH1 0x1F DUP4 GT PUSH1 0x1 DUP2 EQ PUSH3 0x808 JUMPI PUSH1 0x0 DUP5 ISZERO PUSH3 0x7F3 JUMPI DUP3 DUP8 ADD MLOAD SWAP1 POP JUMPDEST PUSH3 0x7FF DUP6 DUP3 PUSH3 0x772 JUMP JUMPDEST DUP7 SSTORE POP PUSH3 0x86F JUMP JUMPDEST PUSH1 0x1F NOT DUP5 AND PUSH3 0x818 DUP7 PUSH3 0x5BE JUMP JUMPDEST PUSH1 0x0 JUMPDEST DUP3 DUP2 LT ISZERO PUSH3 0x842 JUMPI DUP5 DUP10 ADD MLOAD DUP3 SSTORE PUSH1 0x1 DUP3 ADD SWAP2 POP PUSH1 0x20 DUP6 ADD SWAP5 POP PUSH1 0x20 DUP2 ADD SWAP1 POP PUSH3 0x81B JUMP JUMPDEST DUP7 DUP4 LT ISZERO PUSH3 0x862 JUMPI DUP5 DUP10 ADD MLOAD PUSH3 0x85E PUSH1 0x1F DUP10 AND DUP3 PUSH3 0x752 JUMP JUMPDEST DUP4 SSTORE POP JUMPDEST PUSH1 0x1 PUSH1 0x2 DUP9 MUL ADD DUP9 SSTORE POP POP POP JUMPDEST POP POP POP POP POP POP JUMP JUMPDEST PUSH3 0x882 DUP2 PUSH3 0x411 JUMP JUMPDEST DUP3 MSTORE POP POP JUMP JUMPDEST PUSH1 0x0 PUSH1 0x20 DUP3 ADD SWAP1 POP PUSH3 0x89F PUSH1 0x0 DUP4 ADD DUP5 PUSH3 0x877 JUMP JUMPDEST SWAP3 SWAP2 POP POP JUMP JUMPDEST PUSH32 0x4E487B7100000000000000000000000000000000000000000000000000000000 PUSH1 0x0 MSTORE PUSH1 0x12 PUSH1 0x4 MSTORE PUSH1 0x24 PUSH1 0x0 REVERT JUMPDEST PUSH1 0x0 PUSH3 0x8E1 DUP3 PUSH3 0x3B6 JUMP JUMPDEST SWAP2 POP PUSH3 0x8EE DUP4 PUSH3 0x3B6 JUMP JUMPDEST SWAP3 POP DUP3 PUSH3 0x901 JUMPI PUSH3 0x900 PUSH3 0x8A5 JUMP JUMPDEST JUMPDEST DUP3 DUP3 DIV SWAP1 POP SWAP3 SWAP2 POP POP JUMP JUMPDEST PUSH2 0x1DDE DUP1 PUSH3 0x91C PUSH1 0x0 CODECOPY PUSH1 0x0 RETURN INVALID PUSH1 0x80 PUSH1 0x40 MSTORE PUSH1 0x4 CALLDATASIZE LT PUSH2 0x166 JUMPI PUSH1 0x0 CALLDATALOAD PUSH1 0xE0 SHR DUP1 PUSH4 0x85A6B3AE GT PUSH2 0xD1 JUMPI DUP1 PUSH4 0xD1A93D18 GT PUSH2 0x8A JUMPI DUP1 PUSH4 0xDD62ED3E GT PUSH2 0x64 JUMPI DUP1 PUSH4 0xDD62ED3E EQ PUSH2 0x4ED JUMPI DUP1 PUSH4 0xDE3AAF61 EQ PUSH2 0x52A JUMPI DUP1 PUSH4 0xEEC361F5 EQ PUSH2 0x567 JUMPI DUP1 PUSH4 0xF2FDE38B EQ PUSH2 0x571 JUMPI PUSH2 0x166 JUMP JUMPDEST DUP1 PUSH4 0xD1A93D18 EQ PUSH2 0x47B JUMPI DUP1 PUSH4 0xD24378EB EQ PUSH2 0x497 JUMPI DUP1 PUSH4 0xD5ABEB01 EQ PUSH2 0x4C2 JUMPI PUSH2 0x166 JUMP JUMPDEST DUP1 PUSH4 0x85A6B3AE EQ PUSH2 0x37B JUMPI DUP1 PUSH4 0x87269729 EQ PUSH2 0x3A6 JUMPI DUP1 PUSH4 0x8CBE5104 EQ PUSH2 0x3D1 JUMPI DUP1 PUSH4 0x8DA5CB5B EQ PUSH2 0x3E8 JUMPI DUP1 PUSH4 0x95D89B41 EQ PUSH2 0x413 JUMPI DUP1 PUSH4 0xA9059CBB EQ PUSH2 0x43E JUMPI PUSH2 0x166 JUMP JUMPDEST DUP1 PUSH4 0x24600FC3 GT PUSH2 0x123 JUMPI DUP1 PUSH4 0x24600FC3 EQ PUSH2 0x2A3 JUMPI DUP1 PUSH4 0x313CE567 EQ PUSH2 0x2BA JUMPI DUP1 PUSH4 0x68428A1B EQ PUSH2 0x2E5 JUMPI DUP1 PUSH4 0x70A08231 EQ PUSH2 0x310 JUMPI DUP1 PUSH4 0x715018A6 EQ PUSH2 0x34D JUMPI DUP1 PUSH4 0x7D8966E4 EQ PUSH2 0x364 JUMPI PUSH2 0x166 JUMP JUMPDEST DUP1 PUSH4 0x3EE438C EQ PUSH2 0x16B JUMPI DUP1 PUSH4 0x6FDDE03 EQ PUSH2 0x196 JUMPI DUP1 PUSH4 0x95EA7B3 EQ PUSH2 0x1C1 JUMPI DUP1 PUSH4 0x9B6A740 EQ PUSH2 0x1FE JUMPI DUP1 PUSH4 0x18160DDD EQ PUSH2 0x23B JUMPI DUP1 PUSH4 0x23B872DD EQ PUSH2 0x266 JUMPI JUMPDEST PUSH1 0x0 DUP1 REVERT JUMPDEST CALLVALUE DUP1 ISZERO PUSH2 0x177 JUMPI PUSH1 0x0 DUP1 REVERT JUMPDEST POP PUSH2 0x180 PUSH2 0x59A JUMP JUMPDEST PUSH1 0x40 MLOAD PUSH2 0x18D SWAP2 SWAP1 PUSH2 0x167E JUMP JUMPDEST PUSH1 0x40 MLOAD DUP1 SWAP2 SUB SWAP1 RETURN JUMPDEST CALLVALUE DUP1 ISZERO PUSH2 0x1A2 JUMPI PUSH1 0x0 DUP1 REVERT JUMPDEST POP PUSH2 0x1AB PUSH2 0x628 JUMP JUMPDEST PUSH1 0x40 MLOAD PUSH2 0x1B8 SWAP2 SWAP1 PUSH2 0x167E JUMP JUMPDEST PUSH1 0x40 MLOAD DUP1 SWAP2 SUB SWAP1 RETURN JUMPDEST CALLVALUE DUP1 ISZERO PUSH2 0x1CD JUMPI PUSH1 0x0 DUP1 REVERT JUMPDEST POP PUSH2 0x1E8 PUSH1 0x4 DUP1 CALLDATASIZE SUB DUP2 ADD SWAP1 PUSH2 0x1E3 SWAP2 SWAP1 PUSH2 0x1739 JUMP JUMPDEST PUSH2 0x6BA JUMP JUMPDEST PUSH1 0x40 MLOAD PUSH2 0x1F5 SWAP2 SWAP1 PUSH2 0x1794 JUMP JUMPDEST PUSH1 0x40 MLOAD DUP1 SWAP2 SUB SWAP1 RETURN JUMPDEST CALLVALUE DUP1 ISZERO PUSH2 0x20A JUMPI PUSH1 0x0 DUP1 REVERT JUMPDEST POP PUSH2 0x225 PUSH1 0x4 DUP1 CALLDATASIZE SUB DUP2 ADD SWAP1 PUSH2 0x220 SWAP2 SWAP1 PUSH2 0x17AF JUMP JUMPDEST PUSH2 0x6DD JUMP JUMPDEST PUSH1 0x40 MLOAD PUSH2 0x232 SWAP2 SWAP1 PUSH2 0x17EB JUMP JUMPDEST PUSH1 0x40 MLOAD DUP1 SWAP2 SUB SWAP1 RETURN JUMPDEST CALLVALUE DUP1 ISZERO PUSH2 0x247 JUMPI PUSH1 0x0 DUP1 REVERT JUMPDEST POP PUSH2 0x250 PUSH2 0x795 JUMP JUMPDEST PUSH1 0x40 MLOAD PUSH2 0x25D SWAP2 SWAP1 PUSH2 0x17EB JUMP JUMPDEST PUSH1 0x40 MLOAD DUP1 SWAP2 SUB SWAP1 RETURN JUMPDEST CALLVALUE DUP1 ISZERO PUSH2 0x272 JUMPI PUSH1 0x0 DUP1 REVERT JUMPDEST POP PUSH2 0x28D PUSH1 0x4 DUP1 CALLDATASIZE SUB DUP2 ADD SWAP1 PUSH2 0x288 SWAP2 SWAP1 PUSH2 0x1806 JUMP JUMPDEST PUSH2 0x79F JUMP JUMPDEST PUSH1 0x40 MLOAD PUSH2 0x29A SWAP2 SWAP1 PUSH2 0x1794 JUMP JUMPDEST PUSH1 0x40 MLOAD DUP1 SWAP2 SUB SWAP1 RETURN JUMPDEST CALLVALUE DUP1 ISZERO PUSH2 0x2AF JUMPI PUSH1 0x0 DUP1 REVERT JUMPDEST POP PUSH2 0x2B8 PUSH2 0x7CE JUMP JUMPDEST STOP JUMPDEST CALLVALUE DUP1 ISZERO PUSH2 0x2C6 JUMPI PUSH1 0x0 DUP1 REVERT JUMPDEST POP PUSH2 0x2CF PUSH2 0x8AF JUMP JUMPDEST PUSH1 0x40 MLOAD PUSH2 0x2DC SWAP2 SWAP1 PUSH2 0x1875 JUMP JUMPDEST PUSH1 0x40 MLOAD DUP1 SWAP2 SUB SWAP1 RETURN JUMPDEST CALLVALUE DUP1 ISZERO PUSH2 0x2F1 JUMPI PUSH1 0x0 DUP1 REVERT JUMPDEST POP PUSH2 0x2FA PUSH2 0x8B8 JUMP JUMPDEST PUSH1 0x40 MLOAD PUSH2 0x307 SWAP2 SWAP1 PUSH2 0x1794 JUMP JUMPDEST PUSH1 0x40 MLOAD DUP1 SWAP2 SUB SWAP1 RETURN JUMPDEST CALLVALUE DUP1 ISZERO PUSH2 0x31C JUMPI PUSH1 0x0 DUP1 REVERT JUMPDEST POP PUSH2 0x337 PUSH1 0x4 DUP1 CALLDATASIZE SUB DUP2 ADD SWAP1 PUSH2 0x332 SWAP2 SWAP1 PUSH2 0x17AF JUMP JUMPDEST PUSH2 0x8CB JUMP JUMPDEST PUSH1 0x40 MLOAD PUSH2 0x344 SWAP2 SWAP1 PUSH2 0x17EB JUMP JUMPDEST PUSH1 0x40 MLOAD DUP1 SWAP2 SUB SWAP1 RETURN JUMPDEST CALLVALUE DUP1 ISZERO PUSH2 0x359 JUMPI PUSH1 0x0 DUP1 REVERT JUMPDEST POP PUSH2 0x362 PUSH2 0x913 JUMP JUMPDEST STOP JUMPDEST CALLVALUE DUP1 ISZERO PUSH2 0x370 JUMPI PUSH1 0x0 DUP1 REVERT JUMPDEST POP PUSH2 0x379 PUSH2 0x927 JUMP JUMPDEST STOP JUMPDEST CALLVALUE DUP1 ISZERO PUSH2 0x387 JUMPI PUSH1 0x0 DUP1 REVERT JUMPDEST POP PUSH2 0x390 PUSH2 0x95B JUMP JUMPDEST PUSH1 0x40 MLOAD PUSH2 0x39D SWAP2 SWAP1 PUSH2 0x17EB JUMP JUMPDEST PUSH1 0x40 MLOAD DUP1 SWAP2 SUB SWAP1 RETURN JUMPDEST CALLVALUE DUP1 ISZERO PUSH2 0x3B2 JUMPI PUSH1 0x0 DUP1 REVERT JUMPDEST POP PUSH2 0x3BB PUSH2 0x961 JUMP JUMPDEST PUSH1 0x40 MLOAD PUSH2 0x3C8 SWAP2 SWAP1 PUSH2 0x17EB JUMP JUMPDEST PUSH1 0x40 MLOAD DUP1 SWAP2 SUB SWAP1 RETURN JUMPDEST CALLVALUE DUP1 ISZERO PUSH2 0x3DD JUMPI PUSH1 0x0 DUP1 REVERT JUMPDEST POP PUSH2 0x3E6 PUSH2 0x967 JUMP JUMPDEST STOP JUMPDEST CALLVALUE DUP1 ISZERO PUSH2 0x3F4 JUMPI PUSH1 0x0 DUP1 REVERT JUMPDEST POP PUSH2 0x3FD PUSH2 0xA90 JUMP JUMPDEST PUSH1 0x40 MLOAD PUSH2 0x40A SWAP2 SWAP1 PUSH2 0x189F JUMP JUMPDEST PUSH1 0x40 MLOAD DUP1 SWAP2 SUB SWAP1 RETURN JUMPDEST CALLVALUE DUP1 ISZERO PUSH2 0x41F JUMPI PUSH1 0x0 DUP1 REVERT JUMPDEST POP PUSH2 0x428 PUSH2 0xABA JUMP JUMPDEST PUSH1 0x40 MLOAD PUSH2 0x435 SWAP2 SWAP1 PUSH2 0x167E JUMP JUMPDEST PUSH1 0x40 MLOAD DUP1 SWAP2 SUB SWAP1 RETURN JUMPDEST CALLVALUE DUP1 ISZERO PUSH2 0x44A JUMPI PUSH1 0x0 DUP1 REVERT JUMPDEST POP PUSH2 0x465 PUSH1 0x4 DUP1 CALLDATASIZE SUB DUP2 ADD SWAP1 PUSH2 0x460 SWAP2 SWAP1 PUSH2 0x1739 JUMP JUMPDEST PUSH2 0xB4C JUMP JUMPDEST PUSH1 0x40 MLOAD PUSH2 0x472 SWAP2 SWAP1 PUSH2 0x1794 JUMP JUMPDEST PUSH1 0x40 MLOAD DUP1 SWAP2 SUB SWAP1 RETURN JUMPDEST PUSH2 0x495 PUSH1 0x4 DUP1 CALLDATASIZE SUB DUP2 ADD SWAP1 PUSH2 0x490 SWAP2 SWAP1 PUSH2 0x18BA JUMP JUMPDEST PUSH2 0xB6F JUMP JUMPDEST STOP JUMPDEST CALLVALUE DUP1 ISZERO PUSH2 0x4A3 JUMPI PUSH1 0x0 DUP1 REVERT JUMPDEST POP PUSH2 0x4AC PUSH2 0xCB3 JUMP JUMPDEST PUSH1 0x40 MLOAD PUSH2 0x4B9 SWAP2 SWAP1 PUSH2 0x17EB JUMP JUMPDEST PUSH1 0x40 MLOAD DUP1 SWAP2 SUB SWAP1 RETURN JUMPDEST CALLVALUE DUP1 ISZERO PUSH2 0x4CE JUMPI PUSH1 0x0 DUP1 REVERT JUMPDEST POP PUSH2 0x4D7 PUSH2 0xCB9 JUMP JUMPDEST PUSH1 0x40 MLOAD PUSH2 0x4E4 SWAP2 SWAP1 PUSH2 0x17EB JUMP JUMPDEST PUSH1 0x40 MLOAD DUP1 SWAP2 SUB SWAP1 RETURN JUMPDEST CALLVALUE DUP1 ISZERO PUSH2 0x4F9 JUMPI PUSH1 0x0 DUP1 REVERT JUMPDEST POP PUSH2 0x514 PUSH1 0x4 DUP1 CALLDATASIZE SUB DUP2 ADD SWAP1 PUSH2 0x50F SWAP2 SWAP1 PUSH2 0x18E7 JUMP JUMPDEST PUSH2 0xCBF JUMP JUMPDEST PUSH1 0x40 MLOAD PUSH2 0x521 SWAP2 SWAP1 PUSH2 0x17EB JUMP JUMPDEST PUSH1 0x40 MLOAD DUP1 SWAP2 SUB SWAP1 RETURN JUMPDEST CALLVALUE DUP1 ISZERO PUSH2 0x536 JUMPI PUSH1 0x0 DUP1 REVERT JUMPDEST POP PUSH2 0x551 PUSH1 0x4 DUP1 CALLDATASIZE SUB DUP2 ADD SWAP1 PUSH2 0x54C SWAP2 SWAP1 PUSH2 0x17AF JUMP JUMPDEST PUSH2 0xD46 JUMP JUMPDEST PUSH1 0x40 MLOAD PUSH2 0x55E SWAP2 SWAP1 PUSH2 0x17EB JUMP JUMPDEST PUSH1 0x40 MLOAD DUP1 SWAP2 SUB SWAP1 RETURN JUMPDEST PUSH2 0x56F PUSH2 0xD5E JUMP JUMPDEST STOP JUMPDEST CALLVALUE DUP1 ISZERO PUSH2 0x57D JUMPI PUSH1 0x0 DUP1 REVERT JUMPDEST POP PUSH2 0x598 PUSH1 0x4 DUP1 CALLDATASIZE SUB DUP2 ADD SWAP1 PUSH2 0x593 SWAP2 SWAP1 PUSH2 0x17AF JUMP JUMPDEST PUSH2 0xDFA JUMP JUMPDEST STOP JUMPDEST PUSH1 0xA DUP1 SLOAD PUSH2 0x5A7 SWAP1 PUSH2 0x1956 JUMP JUMPDEST DUP1 PUSH1 0x1F ADD PUSH1 0x20 DUP1 SWAP2 DIV MUL PUSH1 0x20 ADD PUSH1 0x40 MLOAD SWAP1 DUP2 ADD PUSH1 0x40 MSTORE DUP1 SWAP3 SWAP2 SWAP1 DUP2 DUP2 MSTORE PUSH1 0x20 ADD DUP3 DUP1 SLOAD PUSH2 0x5D3 SWAP1 PUSH2 0x1956 JUMP JUMPDEST DUP1 ISZERO PUSH2 0x620 JUMPI DUP1 PUSH1 0x1F LT PUSH2 0x5F5 JUMPI PUSH2 0x100 DUP1 DUP4 SLOAD DIV MUL DUP4 MSTORE SWAP2 PUSH1 0x20 ADD SWAP2 PUSH2 0x620 JUMP JUMPDEST DUP3 ADD SWAP2 SWAP1 PUSH1 0x0 MSTORE PUSH1 0x20 PUSH1 0x0 KECCAK256 SWAP1 JUMPDEST DUP2 SLOAD DUP2 MSTORE SWAP1 PUSH1 0x1 ADD SWAP1 PUSH1 0x20 ADD DUP1 DUP4 GT PUSH2 0x603 JUMPI DUP3 SWAP1 SUB PUSH1 0x1F AND DUP3 ADD SWAP2 JUMPDEST POP POP POP POP POP DUP2 JUMP JUMPDEST PUSH1 0x60 PUSH1 0x3 DUP1 SLOAD PUSH2 0x637 SWAP1 PUSH2 0x1956 JUMP JUMPDEST DUP1 PUSH1 0x1F ADD PUSH1 0x20 DUP1 SWAP2 DIV MUL PUSH1 0x20 ADD PUSH1 0x40 MLOAD SWAP1 DUP2 ADD PUSH1 0x40 MSTORE DUP1 SWAP3 SWAP2 SWAP1 DUP2 DUP2 MSTORE PUSH1 0x20 ADD DUP3 DUP1 SLOAD PUSH2 0x663 SWAP1 PUSH2 0x1956 JUMP JUMPDEST DUP1 ISZERO PUSH2 0x6B0 JUMPI DUP1 PUSH1 0x1F LT PUSH2 0x685 JUMPI PUSH2 0x100 DUP1 DUP4 SLOAD DIV MUL DUP4 MSTORE SWAP2 PUSH1 0x20 ADD SWAP2 PUSH2 0x6B0 JUMP JUMPDEST DUP3 ADD SWAP2 SWAP1 PUSH1 0x0 MSTORE PUSH1 0x20 PUSH1 0x0 KECCAK256 SWAP1 JUMPDEST DUP2 SLOAD DUP2 MSTORE SWAP1 PUSH1 0x1 ADD SWAP1 PUSH1 0x20 ADD DUP1 DUP4 GT PUSH2 0x693 JUMPI DUP3 SWAP1 SUB PUSH1 0x1F AND DUP3 ADD SWAP2 JUMPDEST POP POP POP POP POP SWAP1 POP SWAP1 JUMP JUMPDEST PUSH1 0x0 DUP1 PUSH2 0x6C5 PUSH2 0xE80 JUMP JUMPDEST SWAP1 POP PUSH2 0x6D2 DUP2 DUP6 DUP6 PUSH2 0xE88 JUMP JUMPDEST PUSH1 0x1 SWAP2 POP POP SWAP3 SWAP2 POP POP JUMP JUMPDEST PUSH1 0x0 DUP1 PUSH2 0x6E8 PUSH2 0x795 JUMP JUMPDEST SUB PUSH2 0x6F6 JUMPI PUSH1 0x0 SWAP1 POP PUSH2 0x790 JUMP JUMPDEST PUSH1 0x0 PUSH2 0x701 DUP4 PUSH2 0x8CB JUMP JUMPDEST SWAP1 POP PUSH1 0x0 PUSH2 0x70D PUSH2 0x795 JUMP JUMPDEST DUP3 PUSH1 0xB SLOAD PUSH2 0x71B SWAP2 SWAP1 PUSH2 0x19B6 JUMP JUMPDEST PUSH2 0x725 SWAP2 SWAP1 PUSH2 0x1A27 JUMP JUMPDEST SWAP1 POP PUSH1 0x0 PUSH1 0xC PUSH1 0x0 DUP7 PUSH20 0xFFFFFFFFFFFFFFFFFFFFFFFFFFFFFFFFFFFFFFFF AND PUSH20 0xFFFFFFFFFFFFFFFFFFFFFFFFFFFFFFFFFFFFFFFF AND DUP2 MSTORE PUSH1 0x20 ADD SWAP1 DUP2 MSTORE PUSH1 0x20 ADD PUSH1 0x0 KECCAK256 SLOAD SWAP1 POP DUP1 DUP3 GT PUSH2 0x77E JUMPI PUSH1 0x0 SWAP4 POP POP POP POP PUSH2 0x790 JUMP JUMPDEST DUP1 DUP3 PUSH2 0x78A SWAP2 SWAP1 PUSH2 0x1A58 JUMP JUMPDEST SWAP4 POP POP POP POP JUMPDEST SWAP2 SWAP1 POP JUMP JUMPDEST PUSH1 0x0 PUSH1 0x2 SLOAD SWAP1 POP SWAP1 JUMP JUMPDEST PUSH1 0x0 DUP1 PUSH2 0x7AA PUSH2 0xE80 JUMP JUMPDEST SWAP1 POP PUSH2 0x7B7 DUP6 DUP3 DUP6 PUSH2 0xE9A JUMP JUMPDEST PUSH2 0x7C2 DUP6 DUP6 DUP6 PUSH2 0xF2F JUMP JUMPDEST PUSH1 0x1 SWAP2 POP POP SWAP4 SWAP3 POP POP POP JUMP JUMPDEST PUSH2 0x7D6 PUSH2 0x1023 JUMP JUMPDEST PUSH1 0x0 SELFBALANCE SWAP1 POP PUSH1 0x0 DUP2 GT PUSH2 0x81E JUMPI PUSH1 0x40 MLOAD PUSH32 0x8C379A000000000000000000000000000000000000000000000000000000000 DUP2 MSTORE PUSH1 0x4 ADD PUSH2 0x815 SWAP1 PUSH2 0x1AD8 JUMP JUMPDEST PUSH1 0x40 MLOAD DUP1 SWAP2 SUB SWAP1 REVERT JUMPDEST PUSH2 0x826 PUSH2 0xA90 JUMP JUMPDEST PUSH20 0xFFFFFFFFFFFFFFFFFFFFFFFFFFFFFFFFFFFFFFFF AND PUSH2 0x8FC DUP3 SWAP1 DUP2 ISZERO MUL SWAP1 PUSH1 0x40 MLOAD PUSH1 0x0 PUSH1 0x40 MLOAD DUP1 DUP4 SUB DUP2 DUP6 DUP9 DUP9 CALL SWAP4 POP POP POP POP ISZERO DUP1 ISZERO PUSH2 0x86B JUMPI RETURNDATASIZE PUSH1 0x0 DUP1 RETURNDATACOPY RETURNDATASIZE PUSH1 0x0 REVERT JUMPDEST POP PUSH32 0xEAFF4B37086828766AD3268786972C0CD24259D4C87A80F9D3963A3C3D999B0D PUSH2 0x895 PUSH2 0xA90 JUMP JUMPDEST DUP3 PUSH1 0x40 MLOAD PUSH2 0x8A4 SWAP3 SWAP2 SWAP1 PUSH2 0x1AF8 JUMP JUMPDEST PUSH1 0x40 MLOAD DUP1 SWAP2 SUB SWAP1 LOG1 POP JUMP JUMPDEST PUSH1 0x0 PUSH1 0x12 SWAP1 POP SWAP1 JUMP JUMPDEST PUSH1 0x9 PUSH1 0x0 SWAP1 SLOAD SWAP1 PUSH2 0x100 EXP SWAP1 DIV PUSH1 0xFF AND DUP2 JUMP JUMPDEST PUSH1 0x0 DUP1 PUSH1 0x0 DUP4 PUSH20 0xFFFFFFFFFFFFFFFFFFFFFFFFFFFFFFFFFFFFFFFF AND PUSH20 0xFFFFFFFFFFFFFFFFFFFFFFFFFFFFFFFFFFFFFFFF AND DUP2 MSTORE PUSH1 0x20 ADD SWAP1 DUP2 MSTORE PUSH1 0x20 ADD PUSH1 0x0 KECCAK256 SLOAD SWAP1 POP SWAP2 SWAP1 POP JUMP JUMPDEST PUSH2 0x91B PUSH2 0x1023 JUMP JUMPDEST PUSH2 0x925 PUSH1 0x0 PUSH2 0x10AA JUMP JUMPDEST JUMP JUMPDEST PUSH2 0x92F PUSH2 0x1023 JUMP JUMPDEST PUSH1 0x9 PUSH1 0x0 SWAP1 SLOAD SWAP1 PUSH2 0x100 EXP SWAP1 DIV PUSH1 0xFF AND ISZERO PUSH1 0x9 PUSH1 0x0 PUSH2 0x100 EXP DUP2 SLOAD DUP2 PUSH1 0xFF MUL NOT AND SWAP1 DUP4 ISZERO ISZERO MUL OR SWAP1 SSTORE POP JUMP JUMPDEST PUSH1 0xB SLOAD DUP2 JUMP JUMPDEST PUSH1 0x7 SLOAD DUP2 JUMP JUMPDEST PUSH1 0x0 PUSH2 0x972 CALLER PUSH2 0x6DD JUMP JUMPDEST SWAP1 POP PUSH1 0x0 DUP2 GT PUSH2 0x9B7 JUMPI PUSH1 0x40 MLOAD PUSH32 0x8C379A000000000000000000000000000000000000000000000000000000000 DUP2 MSTORE PUSH1 0x4 ADD PUSH2 0x9AE SWAP1 PUSH2 0x1B6D JUMP JUMPDEST PUSH1 0x40 MLOAD DUP1 SWAP2 SUB SWAP1 REVERT JUMPDEST DUP1 PUSH1 0xC PUSH1 0x0 CALLER PUSH20 0xFFFFFFFFFFFFFFFFFFFFFFFFFFFFFFFFFFFFFFFF AND PUSH20 0xFFFFFFFFFFFFFFFFFFFFFFFFFFFFFFFFFFFFFFFF AND DUP2 MSTORE PUSH1 0x20 ADD SWAP1 DUP2 MSTORE PUSH1 0x20 ADD PUSH1 0x0 KECCAK256 PUSH1 0x0 DUP3 DUP3 SLOAD PUSH2 0xA06 SWAP2 SWAP1 PUSH2 0x1B8D JUMP JUMPDEST SWAP3 POP POP DUP2 SWAP1 SSTORE POP CALLER PUSH20 0xFFFFFFFFFFFFFFFFFFFFFFFFFFFFFFFFFFFFFFFF AND PUSH2 0x8FC DUP3 SWAP1 DUP2 ISZERO MUL SWAP1 PUSH1 0x40 MLOAD PUSH1 0x0 PUSH1 0x40 MLOAD DUP1 DUP4 SUB DUP2 DUP6 DUP9 DUP9 CALL SWAP4 POP POP POP POP ISZERO DUP1 ISZERO PUSH2 0xA53 JUMPI RETURNDATASIZE PUSH1 0x0 DUP1 RETURNDATACOPY RETURNDATASIZE PUSH1 0x0 REVERT JUMPDEST POP PUSH32 0x5EFA67896A23B651B741B525CAACBA039C00CA7853BE3DE8EB1F4269E8669C56 CALLER DUP3 PUSH1 0x40 MLOAD PUSH2 0xA85 SWAP3 SWAP2 SWAP1 PUSH2 0x1AF8 JUMP JUMPDEST PUSH1 0x40 MLOAD DUP1 SWAP2 SUB SWAP1 LOG1 POP JUMP JUMPDEST PUSH1 0x0 PUSH1 0x5 PUSH1 0x0 SWAP1 SLOAD SWAP1 PUSH2 0x100 EXP SWAP1 DIV PUSH20 0xFFFFFFFFFFFFFFFFFFFFFFFFFFFFFFFFFFFFFFFF AND SWAP1 POP SWAP1 JUMP JUMPDEST PUSH1 0x60 PUSH1 0x4 DUP1 SLOAD PUSH2 0xAC9 SWAP1 PUSH2 0x1956 JUMP JUMPDEST DUP1 PUSH1 0x1F ADD PUSH1 0x20 DUP1 SWAP2 DIV MUL PUSH1 0x20 ADD PUSH1 0x40 MLOAD SWAP1 DUP2 ADD PUSH1 0x40 MSTORE DUP1 SWAP3 SWAP2 SWAP1 DUP2 DUP2 MSTORE PUSH1 0x20 ADD DUP3 DUP1 SLOAD PUSH2 0xAF5 SWAP1 PUSH2 0x1956 JUMP JUMPDEST DUP1 ISZERO PUSH2 0xB42 JUMPI DUP1 PUSH1 0x1F LT PUSH2 0xB17 JUMPI PUSH2 0x100 DUP1 DUP4 SLOAD DIV MUL DUP4 MSTORE SWAP2 PUSH1 0x20 ADD SWAP2 PUSH2 0xB42 JUMP JUMPDEST DUP3 ADD SWAP2 SWAP1 PUSH1 0x0 MSTORE PUSH1 0x20 PUSH1 0x0 KECCAK256 SWAP1 JUMPDEST DUP2 SLOAD DUP2 MSTORE SWAP1 PUSH1 0x1 ADD SWAP1 PUSH1 0x20 ADD DUP1 DUP4 GT PUSH2 0xB25 JUMPI DUP3 SWAP1 SUB PUSH1 0x1F AND DUP3 ADD SWAP2 JUMPDEST POP POP POP POP POP SWAP1 POP SWAP1 JUMP JUMPDEST PUSH1 0x0 DUP1 PUSH2 0xB57 PUSH2 0xE80 JUMP JUMPDEST SWAP1 POP PUSH2 0xB64 DUP2 DUP6 DUP6 PUSH2 0xF2F JUMP JUMPDEST PUSH1 0x1 SWAP2 POP POP SWAP3 SWAP2 POP POP JUMP JUMPDEST PUSH1 0x9 PUSH1 0x0 SWAP1 SLOAD SWAP1 PUSH2 0x100 EXP SWAP1 DIV PUSH1 0xFF AND PUSH2 0xBBE JUMPI PUSH1 0x40 MLOAD PUSH32 0x8C379A000000000000000000000000000000000000000000000000000000000 DUP2 MSTORE PUSH1 0x4 ADD PUSH2 0xBB5 SWAP1 PUSH2 0x1C0D JUMP JUMPDEST PUSH1 0x40 MLOAD DUP1 SWAP2 SUB SWAP1 REVERT JUMPDEST PUSH1 0x8 SLOAD DUP2 PUSH2 0xBCA PUSH2 0x795 JUMP JUMPDEST PUSH2 0xBD4 SWAP2 SWAP1 PUSH2 0x1B8D JUMP JUMPDEST GT ISZERO PUSH2 0xC15 JUMPI PUSH1 0x40 MLOAD PUSH32 0x8C379A000000000000000000000000000000000000000000000000000000000 DUP2 MSTORE PUSH1 0x4 ADD PUSH2 0xC0C SWAP1 PUSH2 0x1C79 JUMP JUMPDEST PUSH1 0x40 MLOAD DUP1 SWAP2 SUB SWAP1 REVERT JUMPDEST PUSH1 0x0 PUSH1 0x7 SLOAD DUP3 PUSH2 0xC25 SWAP2 SWAP1 PUSH2 0x19B6 JUMP JUMPDEST SWAP1 POP DUP1 CALLVALUE LT ISZERO PUSH2 0xC6A JUMPI PUSH1 0x40 MLOAD PUSH32 0x8C379A000000000000000000000000000000000000000000000000000000000 DUP2 MSTORE PUSH1 0x4 ADD PUSH2 0xC61 SWAP1 PUSH2 0x1CE5 JUMP JUMPDEST PUSH1 0x40 MLOAD DUP1 SWAP2 SUB SWAP1 REVERT JUMPDEST PUSH2 0xC74 CALLER DUP4 PUSH2 0x1170 JUMP JUMPDEST PUSH32 0x247DC2E589EF4622E21F97439AD5D61B6FE14885A30102FA2DCDE37F197DB045 CALLER DUP4 DUP4 PUSH1 0x40 MLOAD PUSH2 0xCA7 SWAP4 SWAP3 SWAP2 SWAP1 PUSH2 0x1D05 JUMP JUMPDEST PUSH1 0x40 MLOAD DUP1 SWAP2 SUB SWAP1 LOG1 POP POP JUMP JUMPDEST PUSH1 0x6 SLOAD DUP2 JUMP JUMPDEST PUSH1 0x8 SLOAD DUP2 JUMP JUMPDEST PUSH1 0x0 PUSH1 0x1 PUSH1 0x0 DUP5 PUSH20 0xFFFFFFFFFFFFFFFFFFFFFFFFFFFFFFFFFFFFFFFF AND PUSH20 0xFFFFFFFFFFFFFFFFFFFFFFFFFFFFFFFFFFFFFFFF AND DUP2 MSTORE PUSH1 0x20 ADD SWAP1 DUP2 MSTORE PUSH1 0x20 ADD PUSH1 0x0 KECCAK256 PUSH1 0x0 DUP4 PUSH20 0xFFFFFFFFFFFFFFFFFFFFFFFFFFFFFFFFFFFFFFFF AND PUSH20 0xFFFFFFFFFFFFFFFFFFFFFFFFFFFFFFFFFFFFFFFF AND DUP2 MSTORE PUSH1 0x20 ADD SWAP1 DUP2 MSTORE PUSH1 0x20 ADD PUSH1 0x0 KECCAK256 SLOAD SWAP1 POP SWAP3 SWAP2 POP POP JUMP JUMPDEST PUSH1 0xC PUSH1 0x20 MSTORE DUP1 PUSH1 0x0 MSTORE PUSH1 0x40 PUSH1 0x0 KECCAK256 PUSH1 0x0 SWAP2 POP SWAP1 POP SLOAD DUP2 JUMP JUMPDEST PUSH1 0x0 PUSH2 0xD68 PUSH2 0x795 JUMP JUMPDEST GT PUSH2 0xDA8 JUMPI PUSH1 0x40 MLOAD PUSH32 0x8C379A000000000000000000000000000000000000000000000000000000000 DUP2 MSTORE PUSH1 0x4 ADD PUSH2 0xD9F SWAP1 PUSH2 0x1D88 JUMP JUMPDEST PUSH1 0x40 MLOAD DUP1 SWAP2 SUB SWAP1 REVERT JUMPDEST CALLVALUE PUSH1 0xB PUSH1 0x0 DUP3 DUP3 SLOAD PUSH2 0xDBA SWAP2 SWAP1 PUSH2 0x1B8D JUMP JUMPDEST SWAP3 POP POP DUP2 SWAP1 SSTORE POP PUSH32 0x554F6CE12B72BCFC5749CB0BD2942EE975DA3632A583F00B17949D949943EC3 CALLVALUE PUSH1 0x40 MLOAD PUSH2 0xDF0 SWAP2 SWAP1 PUSH2 0x17EB JUMP JUMPDEST PUSH1 0x40 MLOAD DUP1 SWAP2 SUB SWAP1 LOG1 JUMP JUMPDEST PUSH2 0xE02 PUSH2 0x1023 JUMP JUMPDEST PUSH1 0x0 PUSH20 0xFFFFFFFFFFFFFFFFFFFFFFFFFFFFFFFFFFFFFFFF AND DUP2 PUSH20 0xFFFFFFFFFFFFFFFFFFFFFFFFFFFFFFFFFFFFFFFF AND SUB PUSH2 0xE74 JUMPI PUSH1 0x0 PUSH1 0x40 MLOAD PUSH32 0x1E4FBDF700000000000000000000000000000000000000000000000000000000 DUP2 MSTORE PUSH1 0x4 ADD PUSH2 0xE6B SWAP2 SWAP1 PUSH2 0x189F JUMP JUMPDEST PUSH1 0x40 MLOAD DUP1 SWAP2 SUB SWAP1 REVERT JUMPDEST PUSH2 0xE7D DUP2 PUSH2 0x10AA JUMP JUMPDEST POP JUMP JUMPDEST PUSH1 0x0 CALLER SWAP1 POP SWAP1 JUMP JUMPDEST PUSH2 0xE95 DUP4 DUP4 DUP4 PUSH1 0x1 PUSH2 0x11F2 JUMP JUMPDEST POP POP POP JUMP JUMPDEST PUSH1 0x0 PUSH2 0xEA6 DUP5 DUP5 PUSH2 0xCBF JUMP JUMPDEST SWAP1 POP PUSH32 0xFFFFFFFFFFFFFFFFFFFFFFFFFFFFFFFFFFFFFFFFFFFFFFFFFFFFFFFFFFFFFFFF DUP2 LT ISZERO PUSH2 0xF29 JUMPI DUP2 DUP2 LT ISZERO PUSH2 0xF19 JUMPI DUP3 DUP2 DUP4 PUSH1 0x40 MLOAD PUSH32 0xFB8F41B200000000000000000000000000000000000000000000000000000000 DUP2 MSTORE PUSH1 0x4 ADD PUSH2 0xF10 SWAP4 SWAP3 SWAP2 SWAP1 PUSH2 0x1D05 JUMP JUMPDEST PUSH1 0x40 MLOAD DUP1 SWAP2 SUB SWAP1 REVERT JUMPDEST PUSH2 0xF28 DUP5 DUP5 DUP5 DUP5 SUB PUSH1 0x0 PUSH2 0x11F2 JUMP JUMPDEST JUMPDEST POP POP POP POP JUMP JUMPDEST PUSH1 0x0 PUSH20 0xFFFFFFFFFFFFFFFFFFFFFFFFFFFFFFFFFFFFFFFF AND DUP4 PUSH20 0xFFFFFFFFFFFFFFFFFFFFFFFFFFFFFFFFFFFFFFFF AND SUB PUSH2 0xFA1 JUMPI PUSH1 0x0 PUSH1 0x40 MLOAD PUSH32 0x96C6FD1E00000000000000000000000000000000000000000000000000000000 DUP2 MSTORE PUSH1 0x4 ADD PUSH2 0xF98 SWAP2 SWAP1 PUSH2 0x189F JUMP JUMPDEST PUSH1 0x40 MLOAD DUP1 SWAP2 SUB SWAP1 REVERT JUMPDEST PUSH1 0x0 PUSH20 0xFFFFFFFFFFFFFFFFFFFFFFFFFFFFFFFFFFFFFFFF AND DUP3 PUSH20 0xFFFFFFFFFFFFFFFFFFFFFFFFFFFFFFFFFFFFFFFF AND SUB PUSH2 0x1013 JUMPI PUSH1 0x0 PUSH1 0x40 MLOAD PUSH32 0xEC442F0500000000000000000000000000000000000000000000000000000000 DUP2 MSTORE PUSH1 0x4 ADD PUSH2 0x100A SWAP2 SWAP1 PUSH2 0x189F JUMP JUMPDEST PUSH1 0x40 MLOAD DUP1 SWAP2 SUB SWAP1 REVERT JUMPDEST PUSH2 0x101E DUP4 DUP4 DUP4 PUSH2 0x13C9 JUMP JUMPDEST POP POP POP JUMP JUMPDEST PUSH2 0x102B PUSH2 0xE80 JUMP JUMPDEST PUSH20 0xFFFFFFFFFFFFFFFFFFFFFFFFFFFFFFFFFFFFFFFF AND PUSH2 0x1049 PUSH2 0xA90 JUMP JUMPDEST PUSH20 0xFFFFFFFFFFFFFFFFFFFFFFFFFFFFFFFFFFFFFFFF AND EQ PUSH2 0x10A8 JUMPI PUSH2 0x106C PUSH2 0xE80 JUMP JUMPDEST PUSH1 0x40 MLOAD PUSH32 0x118CDAA700000000000000000000000000000000000000000000000000000000 DUP2 MSTORE PUSH1 0x4 ADD PUSH2 0x109F SWAP2 SWAP1 PUSH2 0x189F JUMP JUMPDEST PUSH1 0x40 MLOAD DUP1 SWAP2 SUB SWAP1 REVERT JUMPDEST JUMP JUMPDEST PUSH1 0x0 PUSH1 0x5 PUSH1 0x0 SWAP1 SLOAD SWAP1 PUSH2 0x100 EXP SWAP1 DIV PUSH20 0xFFFFFFFFFFFFFFFFFFFFFFFFFFFFFFFFFFFFFFFF AND SWAP1 POP DUP2 PUSH1 0x5 PUSH1 0x0 PUSH2 0x100 EXP DUP2 SLOAD DUP2 PUSH20 0xFFFFFFFFFFFFFFFFFFFFFFFFFFFFFFFFFFFFFFFF MUL NOT AND SWAP1 DUP4 PUSH20 0xFFFFFFFFFFFFFFFFFFFFFFFFFFFFFFFFFFFFFFFF AND MUL OR SWAP1 SSTORE POP DUP2 PUSH20 0xFFFFFFFFFFFFFFFFFFFFFFFFFFFFFFFFFFFFFFFF AND DUP2 PUSH20 0xFFFFFFFFFFFFFFFFFFFFFFFFFFFFFFFFFFFFFFFF AND PUSH32 0x8BE0079C531659141344CD1FD0A4F28419497F9722A3DAAFE3B4186F6B6457E0 PUSH1 0x40 MLOAD PUSH1 0x40 MLOAD DUP1 SWAP2 SUB SWAP1 LOG3 POP POP JUMP JUMPDEST PUSH1 0x0 PUSH20 0xFFFFFFFFFFFFFFFFFFFFFFFFFFFFFFFFFFFFFFFF AND DUP3 PUSH20 0xFFFFFFFFFFFFFFFFFFFFFFFFFFFFFFFFFFFFFFFF AND SUB PUSH2 0x11E2 JUMPI PUSH1 0x0 PUSH1 0x40 MLOAD PUSH32 0xEC442F0500000000000000000000000000000000000000000000000000000000 DUP2 MSTORE PUSH1 0x4 ADD PUSH2 0x11D9 SWAP2 SWAP1 PUSH2 0x189F JUMP JUMPDEST PUSH1 0x40 MLOAD DUP1 SWAP2 SUB SWAP1 REVERT JUMPDEST PUSH2 0x11EE PUSH1 0x0 DUP4 DUP4 PUSH2 0x13C9 JUMP JUMPDEST POP POP JUMP JUMPDEST PUSH1 0x0 PUSH20 0xFFFFFFFFFFFFFFFFFFFFFFFFFFFFFFFFFFFFFFFF AND DUP5 PUSH20 0xFFFFFFFFFFFFFFFFFFFFFFFFFFFFFFFFFFFFFFFF AND SUB PUSH2 0x1264 JUMPI PUSH1 0x0 PUSH1 0x40 MLOAD PUSH32 0xE602DF0500000000000000000000000000000000000000000000000000000000 DUP2 MSTORE PUSH1 0x4 ADD PUSH2 0x125B SWAP2 SWAP1 PUSH2 0x189F JUMP JUMPDEST PUSH1 0x40 MLOAD DUP1 SWAP2 SUB SWAP1 REVERT JUMPDEST PUSH1 0x0 PUSH20 0xFFFFFFFFFFFFFFFFFFFFFFFFFFFFFFFFFFFFFFFF AND DUP4 PUSH20 0xFFFFFFFFFFFFFFFFFFFFFFFFFFFFFFFFFFFFFFFF AND SUB PUSH2 0x12D6 JUMPI PUSH1 0x0 PUSH1 0x40 MLOAD PUSH32 0x94280D6200000000000000000000000000000000000000000000000000000000 DUP2 MSTORE PUSH1 0x4 ADD PUSH2 0x12CD SWAP2 SWAP1 PUSH2 0x189F JUMP JUMPDEST PUSH1 0x40 MLOAD DUP1 SWAP2 SUB SWAP1 REVERT JUMPDEST DUP2 PUSH1 0x1 PUSH1 0x0 DUP7 PUSH20 0xFFFFFFFFFFFFFFFFFFFFFFFFFFFFFFFFFFFFFFFF AND PUSH20 0xFFFFFFFFFFFFFFFFFFFFFFFFFFFFFFFFFFFFFFFF AND DUP2 MSTORE PUSH1 0x20 ADD SWAP1 DUP2 MSTORE PUSH1 0x20 ADD PUSH1 0x0 KECCAK256 PUSH1 0x0 DUP6 PUSH20 0xFFFFFFFFFFFFFFFFFFFFFFFFFFFFFFFFFFFFFFFF AND PUSH20 0xFFFFFFFFFFFFFFFFFFFFFFFFFFFFFFFFFFFFFFFF AND DUP2 MSTORE PUSH1 0x20 ADD SWAP1 DUP2 MSTORE PUSH1 0x20 ADD PUSH1 0x0 KECCAK256 DUP2 SWAP1 SSTORE POP DUP1 ISZERO PUSH2 0x13C3 JUMPI DUP3 PUSH20 0xFFFFFFFFFFFFFFFFFFFFFFFFFFFFFFFFFFFFFFFF AND DUP5 PUSH20 0xFFFFFFFFFFFFFFFFFFFFFFFFFFFFFFFFFFFFFFFF AND PUSH32 0x8C5BE1E5EBEC7D5BD14F71427D1E84F3DD0314C0F7B2291E5B200AC8C7C3B925 DUP5 PUSH1 0x40 MLOAD PUSH2 0x13BA SWAP2 SWAP1 PUSH2 0x17EB JUMP JUMPDEST PUSH1 0x40 MLOAD DUP1 SWAP2 SUB SWAP1 LOG3 JUMPDEST POP POP POP POP JUMP JUMPDEST PUSH1 0x0 PUSH20 0xFFFFFFFFFFFFFFFFFFFFFFFFFFFFFFFFFFFFFFFF AND DUP4 PUSH20 0xFFFFFFFFFFFFFFFFFFFFFFFFFFFFFFFFFFFFFFFF AND SUB PUSH2 0x141B JUMPI DUP1 PUSH1 0x2 PUSH1 0x0 DUP3 DUP3 SLOAD PUSH2 0x140F SWAP2 SWAP1 PUSH2 0x1B8D JUMP JUMPDEST SWAP3 POP POP DUP2 SWAP1 SSTORE POP PUSH2 0x14EE JUMP JUMPDEST PUSH1 0x0 DUP1 PUSH1 0x0 DUP6 PUSH20 0xFFFFFFFFFFFFFFFFFFFFFFFFFFFFFFFFFFFFFFFF AND PUSH20 0xFFFFFFFFFFFFFFFFFFFFFFFFFFFFFFFFFFFFFFFF AND DUP2 MSTORE PUSH1 0x20 ADD SWAP1 DUP2 MSTORE PUSH1 0x20 ADD PUSH1 0x0 KECCAK256 SLOAD SWAP1 POP DUP2 DUP2 LT ISZERO PUSH2 0x14A7 JUMPI DUP4 DUP2 DUP4 PUSH1 0x40 MLOAD PUSH32 0xE450D38C00000000000000000000000000000000000000000000000000000000 DUP2 MSTORE PUSH1 0x4 ADD PUSH2 0x149E SWAP4 SWAP3 SWAP2 SWAP1 PUSH2 0x1D05 JUMP JUMPDEST PUSH1 0x40 MLOAD DUP1 SWAP2 SUB SWAP1 REVERT JUMPDEST DUP2 DUP2 SUB PUSH1 0x0 DUP1 DUP7 PUSH20 0xFFFFFFFFFFFFFFFFFFFFFFFFFFFFFFFFFFFFFFFF AND PUSH20 0xFFFFFFFFFFFFFFFFFFFFFFFFFFFFFFFFFFFFFFFF AND DUP2 MSTORE PUSH1 0x20 ADD SWAP1 DUP2 MSTORE PUSH1 0x20 ADD PUSH1 0x0 KECCAK256 DUP2 SWAP1 SSTORE POP POP JUMPDEST PUSH1 0x0 PUSH20 0xFFFFFFFFFFFFFFFFFFFFFFFFFFFFFFFFFFFFFFFF AND DUP3 PUSH20 0xFFFFFFFFFFFFFFFFFFFFFFFFFFFFFFFFFFFFFFFF AND SUB PUSH2 0x1537 JUMPI DUP1 PUSH1 0x2 PUSH1 0x0 DUP3 DUP3 SLOAD SUB SWAP3 POP POP DUP2 SWAP1 SSTORE POP PUSH2 0x1584 JUMP JUMPDEST DUP1 PUSH1 0x0 DUP1 DUP5 PUSH20 0xFFFFFFFFFFFFFFFFFFFFFFFFFFFFFFFFFFFFFFFF AND PUSH20 0xFFFFFFFFFFFFFFFFFFFFFFFFFFFFFFFFFFFFFFFF AND DUP2 MSTORE PUSH1 0x20 ADD SWAP1 DUP2 MSTORE PUSH1 0x20 ADD PUSH1 0x0 KECCAK256 PUSH1 0x0 DUP3 DUP3 SLOAD ADD SWAP3 POP POP DUP2 SWAP1 SSTORE POP JUMPDEST DUP2 PUSH20 0xFFFFFFFFFFFFFFFFFFFFFFFFFFFFFFFFFFFFFFFF AND DUP4 PUSH20 0xFFFFFFFFFFFFFFFFFFFFFFFFFFFFFFFFFFFFFFFF AND PUSH32 0xDDF252AD1BE2C89B69C2B068FC378DAA952BA7F163C4A11628F55A4DF523B3EF DUP4 PUSH1 0x40 MLOAD PUSH2 0x15E1 SWAP2 SWAP1 PUSH2 0x17EB JUMP JUMPDEST PUSH1 0x40 MLOAD DUP1 SWAP2 SUB SWAP1 LOG3 POP POP POP JUMP JUMPDEST PUSH1 0x0 DUP2 MLOAD SWAP1 POP SWAP2 SWAP1 POP JUMP JUMPDEST PUSH1 0x0 DUP3 DUP3 MSTORE PUSH1 0x20 DUP3 ADD SWAP1 POP SWAP3 SWAP2 POP POP JUMP JUMPDEST PUSH1 0x0 JUMPDEST DUP4 DUP2 LT ISZERO PUSH2 0x1628 JUMPI DUP1 DUP3 ADD MLOAD DUP2 DUP5 ADD MSTORE PUSH1 0x20 DUP2 ADD SWAP1 POP PUSH2 0x160D JUMP JUMPDEST PUSH1 0x0 DUP5 DUP5 ADD MSTORE POP POP POP POP JUMP JUMPDEST PUSH1 0x0 PUSH1 0x1F NOT PUSH1 0x1F DUP4 ADD AND SWAP1 POP SWAP2 SWAP1 POP JUMP JUMPDEST PUSH1 0x0 PUSH2 0x1650 DUP3 PUSH2 0x15EE JUMP JUMPDEST PUSH2 0x165A DUP2 DUP6 PUSH2 0x15F9 JUMP JUMPDEST SWAP4 POP PUSH2 0x166A DUP2 DUP6 PUSH1 0x20 DUP7 ADD PUSH2 0x160A JUMP JUMPDEST PUSH2 0x1673 DUP2 PUSH2 0x1634 JUMP JUMPDEST DUP5 ADD SWAP2 POP POP SWAP3 SWAP2 POP POP JUMP JUMPDEST PUSH1 0x0 PUSH1 0x20 DUP3 ADD SWAP1 POP DUP2 DUP2 SUB PUSH1 0x0 DUP4 ADD MSTORE PUSH2 0x1698 DUP2 DUP5 PUSH2 0x1645 JUMP JUMPDEST SWAP1 POP SWAP3 SWAP2 POP POP JUMP JUMPDEST PUSH1 0x0 DUP1 REVERT JUMPDEST PUSH1 0x0 PUSH20 0xFFFFFFFFFFFFFFFFFFFFFFFFFFFFFFFFFFFFFFFF DUP3 AND SWAP1 POP SWAP2 SWAP1 POP JUMP JUMPDEST PUSH1 0x0 PUSH2 0x16D0 DUP3 PUSH2 0x16A5 JUMP JUMPDEST SWAP1 POP SWAP2 SWAP1 POP JUMP JUMPDEST PUSH2 0x16E0 DUP2 PUSH2 0x16C5 JUMP JUMPDEST DUP2 EQ PUSH2 0x16EB JUMPI PUSH1 0x0 DUP1 REVERT JUMPDEST POP JUMP JUMPDEST PUSH1 0x0 DUP2 CALLDATALOAD SWAP1 POP PUSH2 0x16FD DUP2 PUSH2 0x16D7 JUMP JUMPDEST SWAP3 SWAP2 POP POP JUMP JUMPDEST PUSH1 0x0 DUP2 SWAP1 POP SWAP2 SWAP1 POP JUMP JUMPDEST PUSH2 0x1716 DUP2 PUSH2 0x1703 JUMP JUMPDEST DUP2 EQ PUSH2 0x1721 JUMPI PUSH1 0x0 DUP1 REVERT JUMPDEST POP JUMP JUMPDEST PUSH1 0x0 DUP2 CALLDATALOAD SWAP1 POP PUSH2 0x1733 DUP2 PUSH2 0x170D JUMP JUMPDEST SWAP3 SWAP2 POP POP JUMP JUMPDEST PUSH1 0x0 DUP1 PUSH1 0x40 DUP4 DUP6 SUB SLT ISZERO PUSH2 0x1750 JUMPI PUSH2 0x174F PUSH2 0x16A0 JUMP JUMPDEST JUMPDEST PUSH1 0x0 PUSH2 0x175E DUP6 DUP3 DUP7 ADD PUSH2 0x16EE JUMP JUMPDEST SWAP3 POP POP PUSH1 0x20 PUSH2 0x176F DUP6 DUP3 DUP7 ADD PUSH2 0x1724 JUMP JUMPDEST SWAP2 POP POP SWAP3 POP SWAP3 SWAP1 POP JUMP JUMPDEST PUSH1 0x0 DUP2 ISZERO ISZERO SWAP1 POP SWAP2 SWAP1 POP JUMP JUMPDEST PUSH2 0x178E DUP2 PUSH2 0x1779 JUMP JUMPDEST DUP3 MSTORE POP POP JUMP JUMPDEST PUSH1 0x0 PUSH1 0x20 DUP3 ADD SWAP1 POP PUSH2 0x17A9 PUSH1 0x0 DUP4 ADD DUP5 PUSH2 0x1785 JUMP JUMPDEST SWAP3 SWAP2 POP POP JUMP JUMPDEST PUSH1 0x0 PUSH1 0x20 DUP3 DUP5 SUB SLT ISZERO PUSH2 0x17C5 JUMPI PUSH2 0x17C4 PUSH2 0x16A0 JUMP JUMPDEST JUMPDEST PUSH1 0x0 PUSH2 0x17D3 DUP5 DUP3 DUP6 ADD PUSH2 0x16EE JUMP JUMPDEST SWAP2 POP POP SWAP3 SWAP2 POP POP JUMP JUMPDEST PUSH2 0x17E5 DUP2 PUSH2 0x1703 JUMP JUMPDEST DUP3 MSTORE POP POP JUMP JUMPDEST PUSH1 0x0 PUSH1 0x20 DUP3 ADD SWAP1 POP PUSH2 0x1800 PUSH1 0x0 DUP4 ADD DUP5 PUSH2 0x17DC JUMP JUMPDEST SWAP3 SWAP2 POP POP JUMP JUMPDEST PUSH1 0x0 DUP1 PUSH1 0x0 PUSH1 0x60 DUP5 DUP7 SUB SLT ISZERO PUSH2 0x181F JUMPI PUSH2 0x181E PUSH2 0x16A0 JUMP JUMPDEST JUMPDEST PUSH1 0x0 PUSH2 0x182D DUP7 DUP3 DUP8 ADD PUSH2 0x16EE JUMP JUMPDEST SWAP4 POP POP PUSH1 0x20 PUSH2 0x183E DUP7 DUP3 DUP8 ADD PUSH2 0x16EE JUMP JUMPDEST SWAP3 POP POP PUSH1 0x40 PUSH2 0x184F DUP7 DUP3 DUP8 ADD PUSH2 0x1724 JUMP JUMPDEST SWAP2 POP POP SWAP3 POP SWAP3 POP SWAP3 JUMP JUMPDEST PUSH1 0x0 PUSH1 0xFF DUP3 AND SWAP1 POP SWAP2 SWAP1 POP JUMP JUMPDEST PUSH2 0x186F DUP2 PUSH2 0x1859 JUMP JUMPDEST DUP3 MSTORE POP POP JUMP JUMPDEST PUSH1 0x0 PUSH1 0x20 DUP3 ADD SWAP1 POP PUSH2 0x188A PUSH1 0x0 DUP4 ADD DUP5 PUSH2 0x1866 JUMP JUMPDEST SWAP3 SWAP2 POP POP JUMP JUMPDEST PUSH2 0x1899 DUP2 PUSH2 0x16C5 JUMP JUMPDEST DUP3 MSTORE POP POP JUMP JUMPDEST PUSH1 0x0 PUSH1 0x20 DUP3 ADD SWAP1 POP PUSH2 0x18B4 PUSH1 0x0 DUP4 ADD DUP5 PUSH2 0x1890 JUMP JUMPDEST SWAP3 SWAP2 POP POP JUMP JUMPDEST PUSH1 0x0 PUSH1 0x20 DUP3 DUP5 SUB SLT ISZERO PUSH2 0x18D0 JUMPI PUSH2 0x18CF PUSH2 0x16A0 JUMP JUMPDEST JUMPDEST PUSH1 0x0 PUSH2 0x18DE DUP5 DUP3 DUP6 ADD PUSH2 0x1724 JUMP JUMPDEST SWAP2 POP POP SWAP3 SWAP2 POP POP JUMP JUMPDEST PUSH1 0x0 DUP1 PUSH1 0x40 DUP4 DUP6 SUB SLT ISZERO PUSH2 0x18FE JUMPI PUSH2 0x18FD PUSH2 0x16A0 JUMP JUMPDEST JUMPDEST PUSH1 0x0 PUSH2 0x190C DUP6 DUP3 DUP7 ADD PUSH2 0x16EE JUMP JUMPDEST SWAP3 POP POP PUSH1 0x20 PUSH2 0x191D DUP6 DUP3 DUP7 ADD PUSH2 0x16EE JUMP JUMPDEST SWAP2 POP POP SWAP3 POP SWAP3 SWAP1 POP JUMP JUMPDEST PUSH32 0x4E487B7100000000000000000000000000000000000000000000000000000000 PUSH1 0x0 MSTORE PUSH1 0x22 PUSH1 0x4 MSTORE PUSH1 0x24 PUSH1 0x0 REVERT JUMPDEST PUSH1 0x0 PUSH1 0x2 DUP3 DIV SWAP1 POP PUSH1 0x1 DUP3 AND DUP1 PUSH2 0x196E JUMPI PUSH1 0x7F DUP3 AND SWAP2 POP JUMPDEST PUSH1 0x20 DUP3 LT DUP2 SUB PUSH2 0x1981 JUMPI PUSH2 0x1980 PUSH2 0x1927 JUMP JUMPDEST JUMPDEST POP SWAP2 SWAP1 POP JUMP JUMPDEST PUSH32 0x4E487B7100000000000000000000000000000000000000000000000000000000 PUSH1 0x0 MSTORE PUSH1 0x11 PUSH1 0x4 MSTORE PUSH1 0x24 PUSH1 0x0 REVERT JUMPDEST PUSH1 0x0 PUSH2 0x19C1 DUP3 PUSH2 0x1703 JUMP JUMPDEST SWAP2 POP PUSH2 0x19CC DUP4 PUSH2 0x1703 JUMP JUMPDEST SWAP3 POP DUP3 DUP3 MUL PUSH2 0x19DA DUP2 PUSH2 0x1703 JUMP JUMPDEST SWAP2 POP DUP3 DUP3 DIV DUP5 EQ DUP4 ISZERO OR PUSH2 0x19F1 JUMPI PUSH2 0x19F0 PUSH2 0x1987 JUMP JUMPDEST JUMPDEST POP SWAP3 SWAP2 POP POP JUMP JUMPDEST PUSH32 0x4E487B7100000000000000000000000000000000000000000000000000000000 PUSH1 0x0 MSTORE PUSH1 0x12 PUSH1 0x4 MSTORE PUSH1 0x24 PUSH1 0x0 REVERT JUMPDEST PUSH1 0x0 PUSH2 0x1A32 DUP3 PUSH2 0x1703 JUMP JUMPDEST SWAP2 POP PUSH2 0x1A3D DUP4 PUSH2 0x1703 JUMP JUMPDEST SWAP3 POP DUP3 PUSH2 0x1A4D JUMPI PUSH2 0x1A4C PUSH2 0x19F8 JUMP JUMPDEST JUMPDEST DUP3 DUP3 DIV SWAP1 POP SWAP3 SWAP2 POP POP JUMP JUMPDEST PUSH1 0x0 PUSH2 0x1A63 DUP3 PUSH2 0x1703 JUMP JUMPDEST SWAP2 POP PUSH2 0x1A6E DUP4 PUSH2 0x1703 JUMP JUMPDEST SWAP3 POP DUP3 DUP3 SUB SWAP1 POP DUP2 DUP2 GT ISZERO PUSH2 0x1A86 JUMPI PUSH2 0x1A85 PUSH2 0x1987 JUMP JUMPDEST JUMPDEST SWAP3 SWAP2 POP POP JUMP JUMPDEST PUSH32 0x4E6F2066756E6473000000000000000000000000000000000000000000000000 PUSH1 0x0 DUP3 ADD MSTORE POP JUMP JUMPDEST PUSH1 0x0 PUSH2 0x1AC2 PUSH1 0x8 DUP4 PUSH2 0x15F9 JUMP JUMPDEST SWAP2 POP PUSH2 0x1ACD DUP3 PUSH2 0x1A8C JUMP JUMPDEST PUSH1 0x20 DUP3 ADD SWAP1 POP SWAP2 SWAP1 POP JUMP JUMPDEST PUSH1 0x0 PUSH1 0x20 DUP3 ADD SWAP1 POP DUP2 DUP2 SUB PUSH1 0x0 DUP4 ADD MSTORE PUSH2 0x1AF1 DUP2 PUSH2 0x1AB5 JUMP JUMPDEST SWAP1 POP SWAP2 SWAP1 POP JUMP JUMPDEST PUSH1 0x0 PUSH1 0x40 DUP3 ADD SWAP1 POP PUSH2 0x1B0D PUSH1 0x0 DUP4 ADD DUP6 PUSH2 0x1890 JUMP JUMPDEST PUSH2 0x1B1A PUSH1 0x20 DUP4 ADD DUP5 PUSH2 0x17DC JUMP JUMPDEST SWAP4 SWAP3 POP POP POP JUMP JUMPDEST PUSH32 0x4E6F2072656E7420746F20636C61696D00000000000000000000000000000000 PUSH1 0x0 DUP3 ADD MSTORE POP JUMP JUMPDEST PUSH1 0x0 PUSH2 0x1B57 PUSH1 0x10 DUP4 PUSH2 0x15F9 JUMP JUMPDEST SWAP2 POP PUSH2 0x1B62 DUP3 PUSH2 0x1B21 JUMP JUMPDEST PUSH1 0x20 DUP3 ADD SWAP1 POP SWAP2 SWAP1 POP JUMP JUMPDEST PUSH1 0x0 PUSH1 0x20 DUP3 ADD SWAP1 POP DUP2 DUP2 SUB PUSH1 0x0 DUP4 ADD MSTORE PUSH2 0x1B86 DUP2 PUSH2 0x1B4A JUMP JUMPDEST SWAP1 POP SWAP2 SWAP1 POP JUMP JUMPDEST PUSH1 0x0 PUSH2 0x1B98 DUP3 PUSH2 0x1703 JUMP JUMPDEST SWAP2 POP PUSH2 0x1BA3 DUP4 PUSH2 0x1703 JUMP JUMPDEST SWAP3 POP DUP3 DUP3 ADD SWAP1 POP DUP1 DUP3 GT ISZERO PUSH2 0x1BBB JUMPI PUSH2 0x1BBA PUSH2 0x1987 JUMP JUMPDEST JUMPDEST SWAP3 SWAP2 POP POP JUMP JUMPDEST PUSH32 0x53616C65206973204E4F54206163746976650000000000000000000000000000 PUSH1 0x0 DUP3 ADD MSTORE POP JUMP JUMPDEST PUSH1 0x0 PUSH2 0x1BF7 PUSH1 0x12 DUP4 PUSH2 0x15F9 JUMP JUMPDEST SWAP2 POP PUSH2 0x1C02 DUP3 PUSH2 0x1BC1 JUMP JUMPDEST PUSH1 0x20 DUP3 ADD SWAP1 POP SWAP2 SWAP1 POP JUMP JUMPDEST PUSH1 0x0 PUSH1 0x20 DUP3 ADD SWAP1 POP DUP2 DUP2 SUB PUSH1 0x0 DUP4 ADD MSTORE PUSH2 0x1C26 DUP2 PUSH2 0x1BEA JUMP JUMPDEST SWAP1 POP SWAP2 SWAP1 POP JUMP JUMPDEST PUSH32 0x536F6C64206F7574000000000000000000000000000000000000000000000000 PUSH1 0x0 DUP3 ADD MSTORE POP JUMP JUMPDEST PUSH1 0x0 PUSH2 0x1C63 PUSH1 0x8 DUP4 PUSH2 0x15F9 JUMP JUMPDEST SWAP2 POP PUSH2 0x1C6E DUP3 PUSH2 0x1C2D JUMP JUMPDEST PUSH1 0x20 DUP3 ADD SWAP1 POP SWAP2 SWAP1 POP JUMP JUMPDEST PUSH1 0x0 PUSH1 0x20 DUP3 ADD SWAP1 POP DUP2 DUP2 SUB PUSH1 0x0 DUP4 ADD MSTORE PUSH2 0x1C92 DUP2 PUSH2 0x1C56 JUMP JUMPDEST SWAP1 POP SWAP2 SWAP1 POP JUMP JUMPDEST PUSH32 0x4E6F7420656E6F756768204554482073656E7400000000000000000000000000 PUSH1 0x0 DUP3 ADD MSTORE POP JUMP JUMPDEST PUSH1 0x0 PUSH2 0x1CCF PUSH1 0x13 DUP4 PUSH2 0x15F9 JUMP JUMPDEST SWAP2 POP PUSH2 0x1CDA DUP3 PUSH2 0x1C99 JUMP JUMPDEST PUSH1 0x20 DUP3 ADD SWAP1 POP SWAP2 SWAP1 POP JUMP JUMPDEST PUSH1 0x0 PUSH1 0x20 DUP3 ADD SWAP1 POP DUP2 DUP2 SUB PUSH1 0x0 DUP4 ADD MSTORE PUSH2 0x1CFE DUP2 PUSH2 0x1CC2 JUMP JUMPDEST SWAP1 POP SWAP2 SWAP1 POP JUMP JUMPDEST PUSH1 0x0 PUSH1 0x60 DUP3 ADD SWAP1 POP PUSH2 0x1D1A PUSH1 0x0 DUP4 ADD DUP7 PUSH2 0x1890 JUMP JUMPDEST PUSH2 0x1D27 PUSH1 0x20 DUP4 ADD DUP6 PUSH2 0x17DC JUMP JUMPDEST PUSH2 0x1D34 PUSH1 0x40 DUP4 ADD DUP5 PUSH2 0x17DC JUMP JUMPDEST SWAP5 SWAP4 POP POP POP POP JUMP JUMPDEST PUSH32 0x4E6F207368617265686F6C646572732079657400000000000000000000000000 PUSH1 0x0 DUP3 ADD MSTORE POP JUMP JUMPDEST PUSH1 0x0 PUSH2 0x1D72 PUSH1 0x13 DUP4 PUSH2 0x15F9 JUMP JUMPDEST SWAP2 POP PUSH2 0x1D7D DUP3 PUSH2 0x1D3C JUMP JUMPDEST PUSH1 0x20 DUP3 ADD SWAP1 POP SWAP2 SWAP1 POP JUMP JUMPDEST PUSH1 0x0 PUSH1 0x20 DUP3 ADD SWAP1 POP DUP2 DUP2 SUB PUSH1 0x0 DUP4 ADD MSTORE PUSH2 0x1DA1 DUP2 PUSH2 0x1D65 JUMP JUMPDEST SWAP1 POP SWAP2 SWAP1 POP JUMP INVALID LOG2 PUSH5 0x6970667358 0x22 SLT KECCAK256 PUSH29 0x5785EAD224D208701902854E3E99B23E084813A66C0395C5F633EE3B57 DELEGATECALL CALL PUSH5 0x736F6C6343 STOP ADDMOD EQ STOP CALLER "},"methodIdentifiers":{"allowance(address,address)":"dd62ed3e","approve(address,uint256)":"095ea7b3","assetPrice()":"d24378eb","balanceOf(address)":"70a08231","buyShares(uint256)":"d1a93d18","claimRent()":"8cbe5104","decimals()":"313ce567","depositRent()":"eec361f5","getClaimableRent(address)":"09b6a740","maxSupply()":"d5abeb01","metadataURI()":"03ee438c","name()":"06fdde03","owner()":"8da5cb5b","renounceOwnership()":"715018a6","saleActive()":"68428a1b","sharePrice()":"87269729","symbol()":"95d89b41","toggleSale()":"7d8966e4","totalDividendsDistributed()":"85a6b3ae","totalSupply()":"18160ddd","transfer(address,uint256)":"a9059cbb","transferFrom(address,address,uint256)":"23b872dd","transferOwnership(address)":"f2fde38b","withdrawFunds()":"24600fc3","withdrawnDividends(address)":"de3aaf61"}}}}}