{
  "_format": "hh-sol-artifact-1",
  "contractName": "AssetToken",
  "sourceName": "contracts/AssetToken.sol",
  "abi": [
    {
      "inputs": [
        {
          "internalType": "string",
          "name": "_name",
          "type": "string"
        },
        {
          "internalType": "string",
          "name": "_symbol",
          "type": "string"
        },
        {
          "internalType": "uint256",
          "name": "_basePrice",
          "type": "uint256"
        },
        {
          "internalType": "string",
          "name": "_metadataURI",
          "type": "string"
        },
        {
          "internalType": "address",
          "name": "_initialOwner",
          "type": "address"
        }
      ],
      "stateMutability": "nonpayable",
      "type": "constructor"
    },
    {
      "inputs": [
        {
          "internalType": "address",
          "name": "spender",
          "type": "address"
        },
        {
          "internalType": "uint256",
          "name": "allowance",
          "type": "uint256"
        },
        {
          "internalType": "uint256",
          "name": "needed",
          "type": "uint256"
        }
      ],
      "name": "ERC20InsufficientAllowance",
      "type": "error"
    },
    {
      "inputs": [
        {
          "internalType": "address",
          "name": "sender",
          "type": "address"
        },
        {
          "internalType": "uint256",
          "name": "balance",
          "type": "uint256"
        },
        {
          "internalType": "uint256",
          "name": "needed",
          "type": "uint256"
        }
      ],
      "name": "ERC20InsufficientBalance",
      "type": "error"
    },
    {
      "inputs": [
        {
          "internalType": "address",
          "name": "approver",
          "type": "address"
        }
      ],
      "name": "ERC20InvalidApprover",
      "type": "error"
    },
    {
      "inputs": [
        {
          "internalType": "address",
          "name": "receiver",
          "type": "address"
        }
      ],
      "name": "ERC20InvalidReceiver",
      "type": "error"
    },
    {
      "inputs": [
        {
          "internalType": "address",
          "name": "sender",
          "type": "address"
        }
      ],
      "name": "ERC20InvalidSender",
      "type": "error"
    },
    {
      "inputs": [
        {
          "internalType": "address",
          "name": "spender",
          "type": "address"
        }
      ],
      "name": "ERC20InvalidSpender",
      "type": "error"
    },
    {
      "inputs": [
        {
          "internalType": "address",
          "name": "owner",
          "type": "address"
        }
      ],
      "name": "OwnableInvalidOwner",
      "type": "error"
    },
    {
      "inputs": [
        {
          "internalType": "address",
          "name": "account",
          "type": "address"
        }
      ],
      "name": "OwnableUnauthorizedAccount",
      "type": "error"
    },
    {
      "anonymous": false,
      "inputs": [
        {
          "indexed": true,
          "internalType": "address",
          "name": "owner",
          "type": "address"
        },
        {
          "indexed": true,
          "internalType": "address",
          "name": "spender",
          "type": "address"
        },
        {
          "indexed": false,
          "internalType": "uint256",
          "name": "value",
          "type": "uint256"
        }
      ],
      "name": "Approval",
      "type": "event"
    },
    {
      "anonymous": false,
      "inputs": [
        {
          "indexed": true,
          "internalType": "address",
          "name": "investor",
          "type": "address"
        },
        {
          "indexed": false,
          "internalType": "uint256",
          "name": "shares",
          "type": "uint256"
        },
        {
          "indexed": false,
          "internalType": "uint256",
          "name": "cost",
          "type": "uint256"
        }
      ],
      "name": "AssetBought",
      "type": "event"
    },
    {
      "anonymous": false,
      "inputs": [
        {
          "indexed": true,
          "internalType": "address",
          "name": "investor",
          "type": "address"
        },
        {
          "indexed": false,
          "internalType": "uint256",
          "name": "shares",
          "type": "uint256"
        },
        {
          "indexed": false,
          "internalType": "uint256",
          "name": "refund",
          "type": "uint256"
        }
      ],
      "name": "AssetSold",
      "type": "event"
    },
    {
      "anonymous": false,
      "inputs": [
        {
          "indexed": true,
          "internalType": "address",
          "name": "investor",
          "type": "address"
        },
        {
          "indexed": false,
          "internalType": "uint256",
          "name": "amount",
          "type": "uint256"
        }
      ],
      "name": "DividendClaimed",
      "type": "event"
    },
    {
      "anonymous": false,
      "inputs": [
        {
          "indexed": true,
          "internalType": "address",
          "name": "previousOwner",
          "type": "address"
        },
        {
          "indexed": true,
          "internalType": "address",
          "name": "newOwner",
          "type": "address"
        }
      ],
      "name": "OwnershipTransferred",
      "type": "event"
    },
    {
      "anonymous": false,
      "inputs": [
        {
          "indexed": false,
          "internalType": "uint256",
          "name": "amount",
          "type": "uint256"
        }
      ],
      "name": "RentDeposited",
      "type": "event"
    },
    {
      "anonymous": false,
      "inputs": [
        {
          "indexed": true,
          "internalType": "address",
          "name": "from",
          "type": "address"
        },
        {
          "indexed": true,
          "internalType": "address",
          "name": "to",
          "type": "address"
        },
        {
          "indexed": false,
          "internalType": "uint256",
          "name": "value",
          "type": "uint256"
        }
      ],
      "name": "Transfer",
      "type": "event"
    },
    {
      "inputs": [
        {
          "internalType": "address",
          "name": "owner",
          "type": "address"
        },
        {
          "internalType": "address",
          "name": "spender",
          "type": "address"
        }
      ],
      "name": "allowance",
      "outputs": [
        {
          "internalType": "uint256",
          "name": "",
          "type": "uint256"
        }
      ],
      "stateMutability": "view",
      "type": "function"
    },
    {
      "inputs": [
        {
          "internalType": "address",
          "name": "spender",
          "type": "address"
        },
        {
          "internalType": "uint256",
          "name": "value",
          "type": "uint256"
        }
      ],
      "name": "approve",
      "outputs": [
        {
          "internalType": "bool",
          "name": "",
          "type": "bool"
        }
      ],
      "stateMutability": "nonpayable",
      "type": "function"
    },
    {
      "inputs": [
        {
          "internalType": "address",
          "name": "account",
          "type": "address"
        }
      ],
      "name": "balanceOf",
      "outputs": [
        {
          "internalType": "uint256",
          "name": "",
          "type": "uint256"
        }
      ],
      "stateMutability": "view",
      "type": "function"
    },
    {
      "inputs": [],
      "name": "basePrice",
      "outputs": [
        {
          "internalType": "uint256",
          "name": "",
          "type": "uint256"
        }
      ],
      "stateMutability": "view",
      "type": "function"
    },
    {
      "inputs": [
        {
          "internalType": "uint256",
          "name": "amount",
          "type": "uint256"
        }
      ],
      "name": "buyShares",
      "outputs": [],
      "stateMutability": "payable",
      "type": "function"
    },
    {
      "inputs": [],
      "name": "claimRent",
      "outputs": [],
      "stateMutability": "nonpayable",
      "type": "function"
    },
    {
      "inputs": [],
      "name": "decimals",
      "outputs": [
        {
          "internalType": "uint8",
          "name": "",
          "type": "uint8"
        }
      ],
      "stateMutability": "view",
      "type": "function"
    },
    {
      "inputs": [],
      "name": "depositRent",
      "outputs": [],
      "stateMutability": "payable",
      "type": "function"
    },
    {
      "inputs": [
        {
          "internalType": "uint256",
          "name": "amount",
          "type": "uint256"
        }
      ],
      "name": "getBuyPrice",
      "outputs": [
        {
          "internalType": "uint256",
          "name": "",
          "type": "uint256"
        }
      ],
      "stateMutability": "view",
      "type": "function"
    },
    {
      "inputs": [
        {
          "internalType": "address",
          "name": "user",
          "type": "address"
        }
      ],
      "name": "getClaimableRent",
      "outputs": [
        {
          "internalType": "uint256",
          "name": "",
          "type": "uint256"
        }
      ],
      "stateMutability": "view",
      "type": "function"
    },
    {
      "inputs": [
        {
          "internalType": "uint256",
          "name": "amount",
          "type": "uint256"
        }
      ],
      "name": "getSellPrice",
      "outputs": [
        {
          "internalType": "uint256",
          "name": "",
          "type": "uint256"
        }
      ],
      "stateMutability": "view",
      "type": "function"
    },
    {
      "inputs": [],
      "name": "metadataURI",
      "outputs": [
        {
          "internalType": "string",
          "name": "",
          "type": "string"
        }
      ],
      "stateMutability": "view",
      "type": "function"
    },
    {
      "inputs": [],
      "name": "name",
      "outputs": [
        {
          "internalType": "string",
          "name": "",
          "type": "string"
        }
      ],
      "stateMutability": "view",
      "type": "function"
    },
    {
      "inputs": [],
      "name": "owner",
      "outputs": [
        {
          "internalType": "address",
          "name": "",
          "type": "address"
        }
      ],
      "stateMutability": "view",
      "type": "function"
    },
    {
      "inputs": [],
      "name": "renounceOwnership",
      "outputs": [],
      "stateMutability": "nonpayable",
      "type": "function"
    },
    {
      "inputs": [],
      "name": "saleActive",
      "outputs": [
        {
          "internalType": "bool",
          "name": "",
          "type": "bool"
        }
      ],
      "stateMutability": "view",
      "type": "function"
    },
    {
      "inputs": [
        {
          "internalType": "uint256",
          "name": "amount",
          "type": "uint256"
        }
      ],
      "name": "sellShares",
      "outputs": [],
      "stateMutability": "nonpayable",
      "type": "function"
    },
    {
      "inputs": [],
      "name": "slope",
      "outputs": [
        {
          "internalType": "uint256",
          "name": "",
          "type": "uint256"
        }
      ],
      "stateMutability": "view",
      "type": "function"
    },
    {
      "inputs": [],
      "name": "spotPrice",
      "outputs": [
        {
          "internalType": "uint256",
          "name": "",
          "type": "uint256"
        }
      ],
      "stateMutability": "view",
      "type": "function"
    },
    {
      "inputs": [],
      "name": "symbol",
      "outputs": [
        {
          "internalType": "string",
          "name": "",
          "type": "string"
        }
      ],
      "stateMutability": "view",
      "type": "function"
    },
    {
      "inputs": [],
      "name": "toggleSale",
      "outputs": [],
      "stateMutability": "nonpayable",
      "type": "function"
    },
    {
      "inputs": [],
      "name": "totalDividendsDistributed",
      "outputs": [
        {
          "internalType": "uint256",
          "name": "",
          "type": "uint256"
        }
      ],
      "stateMutability": "view",
      "type": "function"
    },
    {
      "inputs": [],
      "name": "totalSupply",
      "outputs": [
        {
          "internalType": "uint256",
          "name": "",
          "type": "uint256"
        }
      ],
      "stateMutability": "view",
      "type": "function"
    },
    {
      "inputs": [
        {
          "internalType": "address",
          "name": "to",
          "type": "address"
        },
        {
          "internalType": "uint256",
          "name": "value",
          "type": "uint256"
        }
      ],
      "name": "transfer",
      "outputs": [
        {
          "internalType": "bool",
          "name": "",
          "type": "bool"
        }
      ],
      "stateMutability": "nonpayable",
      "type": "function"
    },
    {
      "inputs": [
        {
          "internalType": "address",
          "name": "from",
          "type": "address"
        },
        {
          "internalType": "address",
          "name": "to",
          "type": "address"
        },
        {
          "internalType": "uint256",
          "name": "value",
          "type": "uint256"
        }
      ],
      "name": "transferFrom",
      "outputs": [
        {
          "internalType": "bool",
          "name": "",
          "type": "bool"
        }
      ],
      "stateMutability": "nonpayable",
      "type": "function"
    },
    {
      "inputs": [
        {
          "internalType": "address",
          "name": "newOwner",
          "type": "address"
        }
      ],
      "name": "transferOwnership",
      "outputs": [],
      "stateMutability": "nonpayable",
      "type": "function"
    },
    {
      "inputs": [
        {
          "internalType": "address",
          "name": "",
          "type": "address"
        }
      ],
      "name": "withdrawnDividends",
      "outputs": [
        {
          "internalType": "uint256",
          "name": "",
          "type": "uint256"
        }
      ],
      "stateMutability": "view",
      "type": "function"
    },
    {
      "stateMutability": "payable",
      "type": "receive"
    }
  ],
  "bytecode": "0x60806040526001600960006101000a81548160ff0219169083151502179055503480156200002c57600080fd5b5060405162002ad738038062002ad7833981810160405281019062000052919062000435565b80858581600390816200006691906200075b565b5080600490816200007891906200075b565b505050600073ffffffffffffffffffffffffffffffffffffffff168173ffffffffffffffffffffffffffffffffffffffff1603620000f05760006040517f1e4fbdf7000000000000000000000000000000000000000000000000000000008152600401620000e7919062000853565b60405180910390fd5b62000101816200013c60201b60201c565b50826007819055506103e8836200011991906200089f565b60088190555081600690816200013091906200075b565b505050505050620008d7565b6000600560009054906101000a900473ffffffffffffffffffffffffffffffffffffffff16905081600560006101000a81548173ffffffffffffffffffffffffffffffffffffffff021916908373ffffffffffffffffffffffffffffffffffffffff1602179055508173ffffffffffffffffffffffffffffffffffffffff168173ffffffffffffffffffffffffffffffffffffffff167f8be0079c531659141344cd1fd0a4f28419497f9722a3daafe3b4186f6b6457e060405160405180910390a35050565b6000604051905090565b600080fd5b600080fd5b600080fd5b600080fd5b6000601f19601f8301169050919050565b7f4e487b7100000000000000000000000000000000000000000000000000000000600052604160045260246000fd5b6200026b8262000220565b810181811067ffffffffffffffff821117156200028d576200028c62000231565b5b80604052505050565b6000620002a262000202565b9050620002b0828262000260565b919050565b600067ffffffffffffffff821115620002d357620002d262000231565b5b620002de8262000220565b9050602081019050919050565b60005b838110156200030b578082015181840152602081019050620002ee565b60008484015250505050565b60006200032e6200032884620002b5565b62000296565b9050828152602081018484840111156200034d576200034c6200021b565b5b6200035a848285620002eb565b509392505050565b600082601f8301126200037a576200037962000216565b5b81516200038c84826020860162000317565b91505092915050565b6000819050919050565b620003aa8162000395565b8114620003b657600080fd5b50565b600081519050620003ca816200039f565b92915050565b600073ffffffffffffffffffffffffffffffffffffffff82169050919050565b6000620003fd82620003d0565b9050919050565b6200040f81620003f0565b81146200041b57600080fd5b50565b6000815190506200042f8162000404565b92915050565b600080600080600060a086880312156200045457620004536200020c565b5b600086015167ffffffffffffffff81111562000475576200047462000211565b5b620004838882890162000362565b955050602086015167ffffffffffffffff811115620004a757620004a662000211565b5b620004b58882890162000362565b9450506040620004c888828901620003b9565b935050606086015167ffffffffffffffff811115620004ec57620004eb62000211565b5b620004fa8882890162000362565b92505060806200050d888289016200041e565b9150509295509295909350565b600081519050919050565b7f4e487b7100000000000000000000000000000000000000000000000000000000600052602260045260246000fd5b600060028204905060018216806200056d57607f821691505b60208210810362000583576200058262000525565b5b50919050565b60008190508160005260206000209050919050565b60006020601f8301049050919050565b600082821b905092915050565b600060088302620005ed7fffffffffffffffffffffffffffffffffffffffffffffffffffffffffffffffff82620005ae565b620005f98683620005ae565b95508019841693508086168417925050509392505050565b6000819050919050565b60006200063c62000636620006308462000395565b62000611565b62000395565b9050919050565b6000819050919050565b62000658836200061b565b62000670620006678262000643565b848454620005bb565b825550505050565b600090565b6200068762000678565b620006948184846200064d565b505050565b5b81811015620006bc57620006b06000826200067d565b6001810190506200069a565b5050565b601f8211156200070b57620006d58162000589565b620006e0846200059e565b81016020851015620006f0578190505b62000708620006ff856200059e565b83018262000699565b50505b505050565b600082821c905092915050565b6000620007306000198460080262000710565b1980831691505092915050565b60006200074b83836200071d565b9150826002028217905092915050565b62000766826200051a565b67ffffffffffffffff81111562000782576200078162000231565b5b6200078e825462000554565b6200079b828285620006c0565b600060209050601f831160018114620007d35760008415620007be578287015190505b620007ca85826200073d565b8655506200083a565b601f198416620007e38662000589565b60005b828110156200080d57848901518255600182019150602085019450602081019050620007e6565b868310156200082d578489015162000829601f8916826200071d565b8355505b6001600288020188555050505b505050505050565b6200084d81620003f0565b82525050565b60006020820190506200086a600083018462000842565b92915050565b7f4e487b7100000000000000000000000000000000000000000000000000000000600052601260045260246000fd5b6000620008ac8262000395565b9150620008b98362000395565b925082620008cc57620008cb62000870565b5b828204905092915050565b6121f080620008e76000396000f3fe6080604052600436106101a05760003560e01c80637d8966e4116100ec578063ba730e531161008a578063dd62ed3e11610064578063dd62ed3e146105ba578063de3aaf61146105f7578063eec361f514610634578063f2fde38b1461063e576101a7565b8063ba730e5314610536578063c7876ea414610573578063d1a93d181461059e576101a7565b80638cbe5104116100c65780638cbe51041461048c5780638da5cb5b146104a357806395d89b41146104ce578063a9059cbb146104f9576101a7565b80637d8966e41461041f57806383caf2751461043657806385a6b3ae14610461576101a7565b806323b872dd116101595780634ba8ae81116101335780634ba8ae811461037757806368428a1b146103a057806370a08231146103cb578063715018a614610408576101a7565b806323b872dd146102e4578063313ce56714610321578063398482d81461034c576101a7565b806303ee438c146101ac57806306fdde03146101d757806308d4db1414610202578063095ea7b31461023f57806309b6a7401461027c57806318160ddd146102b9576101a7565b366101a757005b600080fd5b3480156101b857600080fd5b506101c1610667565b6040516101ce919061197e565b60405180910390f35b3480156101e357600080fd5b506101ec6106f5565b6040516101f9919061197e565b60405180910390f35b34801561020e57600080fd5b50610229600480360381019061022491906119db565b610787565b6040516102369190611a17565b60405180910390f35b34801561024b57600080fd5b5061026660048036038101906102619190611a90565b610801565b6040516102739190611aeb565b60405180910390f35b34801561028857600080fd5b506102a3600480360381019061029e9190611b06565b610824565b6040516102b09190611a17565b60405180910390f35b3480156102c557600080fd5b506102ce6108dc565b6040516102db9190611a17565b60405180910390f35b3480156102f057600080fd5b5061030b60048036038101906103069190611b33565b6108e6565b6040516103189190611aeb565b60405180910390f35b34801561032d57600080fd5b50610336610915565b6040516103439190611ba2565b60405180910390f35b34801561035857600080fd5b5061036161091e565b60405161036e9190611a17565b60405180910390f35b34801561038357600080fd5b5061039e600480360381019061039991906119db565b610947565b005b3480156103ac57600080fd5b506103b5610a87565b6040516103c29190611aeb565b60405180910390f35b3480156103d757600080fd5b506103f260048036038101906103ed9190611b06565b610a9a565b6040516103ff9190611a17565b60405180910390f35b34801561041457600080fd5b5061041d610ae2565b005b34801561042b57600080fd5b50610434610af6565b005b34801561044257600080fd5b5061044b610b2a565b6040516104589190611a17565b60405180910390f35b34801561046d57600080fd5b50610476610b30565b6040516104839190611a17565b60405180910390f35b34801561049857600080fd5b506104a1610b36565b005b3480156104af57600080fd5b506104b8610c74565b6040516104c59190611bcc565b60405180910390f35b3480156104da57600080fd5b506104e3610c9e565b6040516104f0919061197e565b60405180910390f35b34801561050557600080fd5b50610520600480360381019061051b9190611a90565b610d30565b60405161052d9190611aeb565b60405180910390f35b34801561054257600080fd5b5061055d600480360381019061055891906119db565b610d53565b60405161056a9190611a17565b60405180910390f35b34801561057f57600080fd5b50610588610de6565b6040516105959190611a17565b60405180910390f35b6105b860048036038101906105b391906119db565b610dec565b005b3480156105c657600080fd5b506105e160048036038101906105dc9190611be7565b610f87565b6040516105ee9190611a17565b60405180910390f35b34801561060357600080fd5b5061061e60048036038101906106199190611b06565b61100e565b60405161062b9190611a17565b60405180910390f35b61063c611026565b005b34801561064a57600080fd5b5061066560048036038101906106609190611b06565b611078565b005b6006805461067490611c56565b80601f01602080910402602001604051908101604052809291908181526020018280546106a090611c56565b80156106ed5780601f106106c2576101008083540402835291602001916106ed565b820191906000526020600020905b8154815290600101906020018083116106d057829003601f168201915b505050505081565b60606003805461070490611c56565b80601f016020809104026020016040519081016040528092919081815260200182805461073090611c56565b801561077d5780601f106107525761010080835404028352916020019161077d565b820191906000526020600020905b81548152906001019060200180831161076057829003601f168201915b5050505050905090565b6000806107926108dc565b90506000600280836107a49190611de9565b600286856107b29190611e34565b6107bc9190611de9565b6107c69190611e68565b6008546107d39190611e9c565b6107dd9190611f0d565b600754856107eb9190611e9c565b6107f59190611e34565b90508092505050919050565b60008061080c6110fe565b9050610819818585611106565b600191505092915050565b60008061082f6108dc565b0361083d57600090506108d7565b600061084883610a9a565b905060006108546108dc565b82600a546108629190611e9c565b61086c9190611f0d565b90506000600b60008673ffffffffffffffffffffffffffffffffffffffff1673ffffffffffffffffffffffffffffffffffffffff1681526020019081526020016000205490508082116108c557600093505050506108d7565b80826108d19190611e68565b93505050505b919050565b6000600254905090565b6000806108f16110fe565b90506108fe858285611118565b6109098585856111ad565b60019150509392505050565b60006012905090565b60006109286108dc565b6008546109359190611e9c565b6007546109429190611e34565b905090565b6000811161098a576040517f08c379a000000000000000000000000000000000000000000000000000000000815260040161098190611f8a565b60405180910390fd5b8061099433610a9a565b10156109d5576040517f08c379a00000000000000000000000000000000000000000000000000000000081526004016109cc90611ff6565b60405180910390fd5b60006109e082610d53565b90506109ec33836112a1565b3373ffffffffffffffffffffffffffffffffffffffff166108fc829081150290604051600060405180830381858888f19350505050158015610a32573d6000803e3d6000fd5b503373ffffffffffffffffffffffffffffffffffffffff167f247dc2e589ef4622e21f97439ad5d61b6fe14885a30102fa2dcde37f197db0458383604051610a7b929190612016565b60405180910390a25050565b600960009054906101000a900460ff1681565b60008060008373ffffffffffffffffffffffffffffffffffffffff1673ffffffffffffffffffffffffffffffffffffffff168152602001908152602001600020549050919050565b610aea611323565b610af460006113aa565b565b610afe611323565b600960009054906101000a900460ff1615600960006101000a81548160ff021916908315150217905550565b60085481565b600a5481565b6000610b4133610824565b905060008111610b86576040517f08c379a0000000000000000000000000000000000000000000000000000000008152600401610b7d9061208b565b60405180910390fd5b80600b60003373ffffffffffffffffffffffffffffffffffffffff1673ffffffffffffffffffffffffffffffffffffffff1681526020019081526020016000206000828254610bd59190611e34565b925050819055503373ffffffffffffffffffffffffffffffffffffffff166108fc829081150290604051600060405180830381858888f19350505050158015610c22573d6000803e3d6000fd5b503373ffffffffffffffffffffffffffffffffffffffff167f5efa67896a23b651b741b525caacba039c00ca7853be3de8eb1f4269e8669c5682604051610c699190611a17565b60405180910390a250565b6000600560009054906101000a900473ffffffffffffffffffffffffffffffffffffffff16905090565b606060048054610cad90611c56565b80601f0160208091040260200160405190810160405280929190818152602001828054610cd990611c56565b8015610d265780601f10610cfb57610100808354040283529160200191610d26565b820191906000526020600020905b815481529060010190602001808311610d0957829003601f168201915b5050505050905090565b600080610d3b6110fe565b9050610d488185856111ad565b600191505092915050565b600080610d5e6108dc565b03610d6c5760009050610de1565b6000610d766108dc565b905060006002808584610d899190611e68565b610d939190611de9565b600284610da09190611de9565b610daa9190611e68565b600854610db79190611e9c565b610dc19190611f0d565b60075485610dcf9190611e9c565b610dd99190611e34565b905080925050505b919050565b60075481565b600960009054906101000a900460ff16610e3b576040517f08c379a0000000000000000000000000000000000000000000000000000000008152600401610e32906120f7565b60405180910390fd5b60008111610e7e576040517f08c379a0000000000000000000000000000000000000000000000000000000008152600401610e7590611f8a565b60405180910390fd5b6000610e8982610787565b905080341015610ece576040517f08c379a0000000000000000000000000000000000000000000000000000000008152600401610ec590612163565b60405180910390fd5b610ed83383611470565b3373ffffffffffffffffffffffffffffffffffffffff167f2bbd93f7078d4e4fbcc4de614c008df7da3f41c7ad899d3bc4913533a2aaed888383604051610f20929190612016565b60405180910390a280341115610f83573373ffffffffffffffffffffffffffffffffffffffff166108fc8234610f569190611e68565b9081150290604051600060405180830381858888f19350505050158015610f81573d6000803e3d6000fd5b505b5050565b6000600160008473ffffffffffffffffffffffffffffffffffffffff1673ffffffffffffffffffffffffffffffffffffffff16815260200190815260200160002060008373ffffffffffffffffffffffffffffffffffffffff1673ffffffffffffffffffffffffffffffffffffffff16815260200190815260200160002054905092915050565b600b6020528060005260406000206000915090505481565b34600a60008282546110389190611e34565b925050819055507f0554f6ce12b72bcfc5749cb0bd2942ee975da3632a583f00b17949d949943ec33460405161106e9190611a17565b60405180910390a1565b611080611323565b600073ffffffffffffffffffffffffffffffffffffffff168173ffffffffffffffffffffffffffffffffffffffff16036110f25760006040517f1e4fbdf70000000000000000000000000000000000000000000000000000000081526004016110e99190611bcc565b60405180910390fd5b6110fb816113aa565b50565b600033905090565b61111383838360016114f2565b505050565b60006111248484610f87565b90507fffffffffffffffffffffffffffffffffffffffffffffffffffffffffffffffff8110156111a75781811015611197578281836040517ffb8f41b200000000000000000000000000000000000000000000000000000000815260040161118e93929190612183565b60405180910390fd5b6111a6848484840360006114f2565b5b50505050565b600073ffffffffffffffffffffffffffffffffffffffff168373ffffffffffffffffffffffffffffffffffffffff160361121f5760006040517f96c6fd1e0000000000000000000000000000000000000000000000000000000081526004016112169190611bcc565b60405180910390fd5b600073ffffffffffffffffffffffffffffffffffffffff168273ffffffffffffffffffffffffffffffffffffffff16036112915760006040517fec442f050000000000000000000000000000000000000000000000000000000081526004016112889190611bcc565b60405180910390fd5b61129c8383836116c9565b505050565b600073ffffffffffffffffffffffffffffffffffffffff168273ffffffffffffffffffffffffffffffffffffffff16036113135760006040517f96c6fd1e00000000000000000000000000000000000000000000000000000000815260040161130a9190611bcc565b60405180910390fd5b61131f826000836116c9565b5050565b61132b6110fe565b73ffffffffffffffffffffffffffffffffffffffff16611349610c74565b73ffffffffffffffffffffffffffffffffffffffff16146113a85761136c6110fe565b6040517f118cdaa700000000000000000000000000000000000000000000000000000000815260040161139f9190611bcc565b60405180910390fd5b565b6000600560009054906101000a900473ffffffffffffffffffffffffffffffffffffffff16905081600560006101000a81548173ffffffffffffffffffffffffffffffffffffffff021916908373ffffffffffffffffffffffffffffffffffffffff1602179055508173ffffffffffffffffffffffffffffffffffffffff168173ffffffffffffffffffffffffffffffffffffffff167f8be0079c531659141344cd1fd0a4f28419497f9722a3daafe3b4186f6b6457e060405160405180910390a35050565b600073ffffffffffffffffffffffffffffffffffffffff168273ffffffffffffffffffffffffffffffffffffffff16036114e25760006040517fec442f050000000000000000000000000000000000000000000000000000000081526004016114d99190611bcc565b60405180910390fd5b6114ee600083836116c9565b5050565b600073ffffffffffffffffffffffffffffffffffffffff168473ffffffffffffffffffffffffffffffffffffffff16036115645760006040517fe602df0500000000000000000000000000000000000000000000000000000000815260040161155b9190611bcc565b60405180910390fd5b600073ffffffffffffffffffffffffffffffffffffffff168373ffffffffffffffffffffffffffffffffffffffff16036115d65760006040517f94280d620000000000000000000000000000000000000000000000000000000081526004016115cd9190611bcc565b60405180910390fd5b81600160008673ffffffffffffffffffffffffffffffffffffffff1673ffffffffffffffffffffffffffffffffffffffff16815260200190815260200160002060008573ffffffffffffffffffffffffffffffffffffffff1673ffffffffffffffffffffffffffffffffffffffff1681526020019081526020016000208190555080156116c3578273ffffffffffffffffffffffffffffffffffffffff168473ffffffffffffffffffffffffffffffffffffffff167f8c5be1e5ebec7d5bd14f71427d1e84f3dd0314c0f7b2291e5b200ac8c7c3b925846040516116ba9190611a17565b60405180910390a35b50505050565b600073ffffffffffffffffffffffffffffffffffffffff168373ffffffffffffffffffffffffffffffffffffffff160361171b57806002600082825461170f9190611e34565b925050819055506117ee565b60008060008573ffffffffffffffffffffffffffffffffffffffff1673ffffffffffffffffffffffffffffffffffffffff168152602001908152602001600020549050818110156117a7578381836040517fe450d38c00000000000000000000000000000000000000000000000000000000815260040161179e93929190612183565b60405180910390fd5b8181036000808673ffffffffffffffffffffffffffffffffffffffff1673ffffffffffffffffffffffffffffffffffffffff16815260200190815260200160002081905550505b600073ffffffffffffffffffffffffffffffffffffffff168273ffffffffffffffffffffffffffffffffffffffff16036118375780600260008282540392505081905550611884565b806000808473ffffffffffffffffffffffffffffffffffffffff1673ffffffffffffffffffffffffffffffffffffffff168152602001908152602001600020600082825401925050819055505b8173ffffffffffffffffffffffffffffffffffffffff168373ffffffffffffffffffffffffffffffffffffffff167fddf252ad1be2c89b69c2b068fc378daa952ba7f163c4a11628f55a4df523b3ef836040516118e19190611a17565b60405180910390a3505050565b600081519050919050565b600082825260208201905092915050565b60005b8381101561192857808201518184015260208101905061190d565b60008484015250505050565b6000601f19601f8301169050919050565b6000611950826118ee565b61195a81856118f9565b935061196a81856020860161190a565b61197381611934565b840191505092915050565b600060208201905081810360008301526119988184611945565b905092915050565b600080fd5b6000819050919050565b6119b8816119a5565b81146119c357600080fd5b50565b6000813590506119d5816119af565b92915050565b6000602082840312156119f1576119f06119a0565b5b60006119ff848285016119c6565b91505092915050565b611a11816119a5565b82525050565b6000602082019050611a2c6000830184611a08565b92915050565b600073ffffffffffffffffffffffffffffffffffffffff82169050919050565b6000611a5d82611a32565b9050919050565b611a6d81611a52565b8114611a7857600080fd5b50565b600081359050611a8a81611a64565b92915050565b60008060408385031215611aa757611aa66119a0565b5b6000611ab585828601611a7b565b9250506020611ac6858286016119c6565b9150509250929050565b60008115159050919050565b611ae581611ad0565b82525050565b6000602082019050611b006000830184611adc565b92915050565b600060208284031215611b1c57611b1b6119a0565b5b6000611b2a84828501611a7b565b91505092915050565b600080600060608486031215611b4c57611b4b6119a0565b5b6000611b5a86828701611a7b565b9350506020611b6b86828701611a7b565b9250506040611b7c868287016119c6565b9150509250925092565b600060ff82169050919050565b611b9c81611b86565b82525050565b6000602082019050611bb76000830184611b93565b92915050565b611bc681611a52565b82525050565b6000602082019050611be16000830184611bbd565b92915050565b60008060408385031215611bfe57611bfd6119a0565b5b6000611c0c85828601611a7b565b9250506020611c1d85828601611a7b565b9150509250929050565b7f4e487b7100000000000000000000000000000000000000000000000000000000600052602260045260246000fd5b60006002820490506001821680611c6e57607f821691505b602082108103611c8157611c80611c27565b5b50919050565b7f4e487b7100000000000000000000000000000000000000000000000000000000600052601160045260246000fd5b60008160011c9050919050565b6000808291508390505b6001851115611d0d57808604811115611ce957611ce8611c87565b5b6001851615611cf85780820291505b8081029050611d0685611cb6565b9450611ccd565b94509492505050565b600082611d265760019050611de2565b81611d345760009050611de2565b8160018114611d4a5760028114611d5457611d83565b6001915050611de2565b60ff841115611d6657611d65611c87565b5b8360020a915084821115611d7d57611d7c611c87565b5b50611de2565b5060208310610133831016604e8410600b8410161715611db85782820a905083811115611db357611db2611c87565b5b611de2565b611dc58484846001611cc3565b92509050818404811115611ddc57611ddb611c87565b5b81810290505b9392505050565b6000611df4826119a5565b9150611dff83611b86565b9250611e2c7fffffffffffffffffffffffffffffffffffffffffffffffffffffffffffffffff8484611d16565b905092915050565b6000611e3f826119a5565b9150611e4a836119a5565b9250828201905080821115611e6257611e61611c87565b5b92915050565b6000611e73826119a5565b9150611e7e836119a5565b9250828203905081811115611e9657611e95611c87565b5b92915050565b6000611ea7826119a5565b9150611eb2836119a5565b9250828202611ec0816119a5565b91508282048414831517611ed757611ed6611c87565b5b5092915050565b7f4e487b7100000000000000000000000000000000000000000000000000000000600052601260045260246000fd5b6000611f18826119a5565b9150611f23836119a5565b925082611f3357611f32611ede565b5b828204905092915050565b7f416d6f756e74203e203000000000000000000000000000000000000000000000600082015250565b6000611f74600a836118f9565b9150611f7f82611f3e565b602082019050919050565b60006020820190508181036000830152611fa381611f67565b9050919050565b7f4e6f7420656e6f75676820736861726573000000000000000000000000000000600082015250565b6000611fe06011836118f9565b9150611feb82611faa565b602082019050919050565b6000602082019050818103600083015261200f81611fd3565b9050919050565b600060408201905061202b6000830185611a08565b6120386020830184611a08565b9392505050565b7f4e6f207969656c64000000000000000000000000000000000000000000000000600082015250565b60006120756008836118f9565b91506120808261203f565b602082019050919050565b600060208201905081810360008301526120a481612068565b9050919050565b7f54726164696e6720506175736564000000000000000000000000000000000000600082015250565b60006120e1600e836118f9565b91506120ec826120ab565b602082019050919050565b60006020820190508181036000830152612110816120d4565b9050919050565b7f496e73756666696369656e74204554482073656e740000000000000000000000600082015250565b600061214d6015836118f9565b915061215882612117565b602082019050919050565b6000602082019050818103600083015261217c81612140565b9050919050565b60006060820190506121986000830186611bbd565b6121a56020830185611a08565b6121b26040830184611a08565b94935050505056fea2646970667358221220be20180354b6edd674c1246efa196f1b1986ee2341133055bd3e715ab9a1773a64736f6c63430008140033",
  "linkReferences": {},
  "deployedLinkReferences": {}
}