{
  "_format": "hh-sol-artifact-1",
  "contractName": "AssetToken",
  "sourceName": "contracts/AssetToken.sol",
  "abi": [
    {
      "inputs": [
        {
          "internalType": "string",
          "name": "_name",
          "type": "string"
        },
        {
          "internalType": "string",
          "name": "_symbol",
          "type": "string"
        },
        {
          "internalType": "uint256",
          "name": "_assetPrice",
          "type": "uint256"
        },
        {
          "internalType": "uint256",
          "name": "_sharePrice",
          "type": "uint256"
        },
        {
          "internalType": "string",
          "name": "_metadataURI",
          "type": "string"
        },
        {
          "internalType": "address",
          "name": "_initialOwner",
          "type": "address"
        }
      ],
      "stateMutability": "nonpayable",
      "type": "constructor"
    },
    {
      "inputs": [
        {
          "internalType": "address",
          "name": "spender",
          "type": "address"
        },
        {
          "internalType": "uint256",
          "name": "allowance",
          "type": "uint256"
        },
        {
          "internalType": "uint256",
          "name": "needed",
          "type": "uint256"
        }
      ],
      "name": "ERC20InsufficientAllowance",
      "type": "error"
    },
    {
      "inputs": [
        {
          "internalType": "address",
          "name": "sender",
          "type": "address"
        },
        {
          "internalType": "uint256",
          "name": "balance",
          "type": "uint256"
        },
        {
          "internalType": "uint256",
          "name": "needed",
          "type": "uint256"
        }
      ],
      "name": "ERC20InsufficientBalance",
      "type": "error"
    },
    {
      "inputs": [
        {
          "internalType": "address",
          "name": "approver",
          "type": "address"
        }
      ],
      "name": "ERC20InvalidApprover",
      "type": "error"
    },
    {
      "inputs": [
        {
          "internalType": "address",
          "name": "receiver",
          "type": "address"
        }
      ],
      "name": "ERC20InvalidReceiver",
      "type": "error"
    },
    {
      "inputs": [
        {
          "internalType": "address",
          "name": "sender",
          "type": "address"
        }
      ],
      "name": "ERC20InvalidSender",
      "type": "error"
    },
    {
      "inputs": [
        {
          "internalType": "address",
          "name": "spender",
          "type": "address"
        }
      ],
      "name": "ERC20InvalidSpender",
      "type": "error"
    },
    {
      "inputs": [
        {
          "internalType": "address",
          "name": "owner",
          "type": "address"
        }
      ],
      "name": "OwnableInvalidOwner",
      "type": "error"
    },
    {
      "inputs": [
        {
          "internalType": "address",
          "name": "account",
          "type": "address"
        }
      ],
      "name": "OwnableUnauthorizedAccount",
      "type": "error"
    },
    {
      "anonymous": false,
      "inputs": [
        {
          "indexed": true,
          "internalType": "address",
          "name": "owner",
          "type": "address"
        },
        {
          "indexed": true,
          "internalType": "address",
          "name": "spender",
          "type": "address"
        },
        {
          "indexed": false,
          "internalType": "uint256",
          "name": "value",
          "type": "uint256"
        }
      ],
      "name": "Approval",
      "type": "event"
    },
    {
      "anonymous": false,
      "inputs": [
        {
          "indexed": false,
          "internalType": "address",
          "name": "investor",
          "type": "address"
        },
        {
          "indexed": false,
          "internalType": "uint256",
          "name": "shares",
          "type": "uint256"
        },
        {
          "indexed": false,
          "internalType": "uint256",
          "name": "amount",
          "type": "uint256"
        }
      ],
      "name": "AssetSold",
      "type": "event"
    },
    {
      "anonymous": false,
      "inputs": [
        {
          "indexed": false,
          "internalType": "address",
          "name": "investor",
          "type": "address"
        },
        {
          "indexed": false,
          "internalType": "uint256",
          "name": "amount",
          "type": "uint256"
        }
      ],
      "name": "DividendClaimed",
      "type": "event"
    },
    {
      "anonymous": false,
      "inputs": [
        {
          "indexed": false,
          "internalType": "address",
          "name": "owner",
          "type": "address"
        },
        {
          "indexed": false,
          "internalType": "uint256",
          "name": "amount",
          "type": "uint256"
        }
      ],
      "name": "FundsWithdrawn",
      "type": "event"
    },
    {
      "anonymous": false,
      "inputs": [
        {
          "indexed": true,
          "internalType": "address",
          "name": "previousOwner",
          "type": "address"
        },
        {
          "indexed": true,
          "internalType": "address",
          "name": "newOwner",
          "type": "address"
        }
      ],
      "name": "OwnershipTransferred",
      "type": "event"
    },
    {
      "anonymous": false,
      "inputs": [
        {
          "indexed": false,
          "internalType": "uint256",
          "name": "amount",
          "type": "uint256"
        }
      ],
      "name": "RentDeposited",
      "type": "event"
    },
    {
      "anonymous": false,
      "inputs": [
        {
          "indexed": true,
          "internalType": "address",
          "name": "from",
          "type": "address"
        },
        {
          "indexed": true,
          "internalType": "address",
          "name": "to",
          "type": "address"
        },
        {
          "indexed": false,
          "internalType": "uint256",
          "name": "value",
          "type": "uint256"
        }
      ],
      "name": "Transfer",
      "type": "event"
    },
    {
      "inputs": [
        {
          "internalType": "address",
          "name": "owner",
          "type": "address"
        },
        {
          "internalType": "address",
          "name": "spender",
          "type": "address"
        }
      ],
      "name": "allowance",
      "outputs": [
        {
          "internalType": "uint256",
          "name": "",
          "type": "uint256"
        }
      ],
      "stateMutability": "view",
      "type": "function"
    },
    {
      "inputs": [
        {
          "internalType": "address",
          "name": "spender",
          "type": "address"
        },
        {
          "internalType": "uint256",
          "name": "value",
          "type": "uint256"
        }
      ],
      "name": "approve",
      "outputs": [
        {
          "internalType": "bool",
          "name": "",
          "type": "bool"
        }
      ],
      "stateMutability": "nonpayable",
      "type": "function"
    },
    {
      "inputs": [],
      "name": "assetPrice",
      "outputs": [
        {
          "internalType": "uint256",
          "name": "",
          "type": "uint256"
        }
      ],
      "stateMutability": "view",
      "type": "function"
    },
    {
      "inputs": [
        {
          "internalType": "address",
          "name": "account",
          "type": "address"
        }
      ],
      "name": "balanceOf",
      "outputs": [
        {
          "internalType": "uint256",
          "name": "",
          "type": "uint256"
        }
      ],
      "stateMutability": "view",
      "type": "function"
    },
    {
      "inputs": [
        {
          "internalType": "uint256",
          "name": "numberOfShares",
          "type": "uint256"
        }
      ],
      "name": "buyShares",
      "outputs": [],
      "stateMutability": "payable",
      "type": "function"
    },
    {
      "inputs": [],
      "name": "claimRent",
      "outputs": [],
      "stateMutability": "nonpayable",
      "type": "function"
    },
    {
      "inputs": [],
      "name": "decimals",
      "outputs": [
        {
          "internalType": "uint8",
          "name": "",
          "type": "uint8"
        }
      ],
      "stateMutability": "view",
      "type": "function"
    },
    {
      "inputs": [],
      "name": "depositRent",
      "outputs": [],
      "stateMutability": "payable",
      "type": "function"
    },
    {
      "inputs": [
        {
          "internalType": "address",
          "name": "user",
          "type": "address"
        }
      ],
      "name": "getClaimableRent",
      "outputs": [
        {
          "internalType": "uint256",
          "name": "",
          "type": "uint256"
        }
      ],
      "stateMutability": "view",
      "type": "function"
    },
    {
      "inputs": [],
      "name": "maxSupply",
      "outputs": [
        {
          "internalType": "uint256",
          "name": "",
          "type": "uint256"
        }
      ],
      "stateMutability": "view",
      "type": "function"
    },
    {
      "inputs": [],
      "name": "metadataURI",
      "outputs": [
        {
          "internalType": "string",
          "name": "",
          "type": "string"
        }
      ],
      "stateMutability": "view",
      "type": "function"
    },
    {
      "inputs": [],
      "name": "name",
      "outputs": [
        {
          "internalType": "string",
          "name": "",
          "type": "string"
        }
      ],
      "stateMutability": "view",
      "type": "function"
    },
    {
      "inputs": [],
      "name": "owner",
      "outputs": [
        {
          "internalType": "address",
          "name": "",
          "type": "address"
        }
      ],
      "stateMutability": "view",
      "type": "function"
    },
    {
      "inputs": [],
      "name": "renounceOwnership",
      "outputs": [],
      "stateMutability": "nonpayable",
      "type": "function"
    },
    {
      "inputs": [],
      "name": "saleActive",
      "outputs": [
        {
          "internalType": "bool",
          "name": "",
          "type": "bool"
        }
      ],
      "stateMutability": "view",
      "type": "function"
    },
    {
      "inputs": [],
      "name": "sharePrice",
      "outputs": [
        {
          "internalType": "uint256",
          "name": "",
          "type": "uint256"
        }
      ],
      "stateMutability": "view",
      "type": "function"
    },
    {
      "inputs": [],
      "name": "symbol",
      "outputs": [
        {
          "internalType": "string",
          "name": "",
          "type": "string"
        }
      ],
      "stateMutability": "view",
      "type": "function"
    },
    {
      "inputs": [],
      "name": "toggleSale",
      "outputs": [],
      "stateMutability": "nonpayable",
      "type": "function"
    },
    {
      "inputs": [],
      "name": "totalDividendsDistributed",
      "outputs": [
        {
          "internalType": "uint256",
          "name": "",
          "type": "uint256"
        }
      ],
      "stateMutability": "view",
      "type": "function"
    },
    {
      "inputs": [],
      "name": "totalSupply",
      "outputs": [
        {
          "internalType": "uint256",
          "name": "",
          "type": "uint256"
        }
      ],
      "stateMutability": "view",
      "type": "function"
    },
    {
      "inputs": [
        {
          "internalType": "address",
          "name": "to",
          "type": "address"
        },
        {
          "internalType": "uint256",
          "name": "value",
          "type": "uint256"
        }
      ],
      "name": "transfer",
      "outputs": [
        {
          "internalType": "bool",
          "name": "",
          "type": "bool"
        }
      ],
      "stateMutability": "nonpayable",
      "type": "function"
    },
    {
      "inputs": [
        {
          "internalType": "address",
          "name": "from",
          "type": "address"
        },
        {
          "internalType": "address",
          "name": "to",
          "type": "address"
        },
        {
          "internalType": "uint256",
          "name": "value",
          "type": "uint256"
        }
      ],
      "name": "transferFrom",
      "outputs": [
        {
          "internalType": "bool",
          "name": "",
          "type": "bool"
        }
      ],
      "stateMutability": "nonpayable",
      "type": "function"
    },
    {
      "inputs": [
        {
          "internalType": "address",
          "name": "newOwner",
          "type": "address"
        }
      ],
      "name": "transferOwnership",
      "outputs": [],
      "stateMutability": "nonpayable",
      "type": "function"
    },
    {
      "inputs": [],
      "name": "withdrawFunds",
      "outputs": [],
      "stateMutability": "nonpayable",
      "type": "function"
    },
    {
      "inputs": [
        {
          "internalType": "address",
          "name": "",
          "type": "address"
        }
      ],
      "name": "withdrawnDividends",
      "outputs": [
        {
          "internalType": "uint256",
          "name": "",
          "type": "uint256"
        }
      ],
      "stateMutability": "view",
      "type": "function"
    }
  ],
  "bytecode": "0x60806040526000600960006101000a81548160ff0219169083151502179055503480156200002c57600080fd5b50604051620026fa380380620026fa833981810160405281019062000052919062000456565b808686816003908162000066919062000790565b50806004908162000078919062000790565b505050600073ffffffffffffffffffffffffffffffffffffffff168173ffffffffffffffffffffffffffffffffffffffff1603620000f05760006040517f1e4fbdf7000000000000000000000000000000000000000000000000000000008152600401620000e7919062000888565b60405180910390fd5b62000101816200015d60201b60201c565b50836006819055508260078190555082846200011e9190620008d4565b60088190555081600a908162000135919062000790565b506001600960006101000a81548160ff0219169083151502179055505050505050506200090c565b6000600560009054906101000a900473ffffffffffffffffffffffffffffffffffffffff16905081600560006101000a81548173ffffffffffffffffffffffffffffffffffffffff021916908373ffffffffffffffffffffffffffffffffffffffff1602179055508173ffffffffffffffffffffffffffffffffffffffff168173ffffffffffffffffffffffffffffffffffffffff167f8be0079c531659141344cd1fd0a4f28419497f9722a3daafe3b4186f6b6457e060405160405180910390a35050565b6000604051905090565b600080fd5b600080fd5b600080fd5b600080fd5b6000601f19601f8301169050919050565b7f4e487b7100000000000000000000000000000000000000000000000000000000600052604160045260246000fd5b6200028c8262000241565b810181811067ffffffffffffffff82111715620002ae57620002ad62000252565b5b80604052505050565b6000620002c362000223565b9050620002d1828262000281565b919050565b600067ffffffffffffffff821115620002f457620002f362000252565b5b620002ff8262000241565b9050602081019050919050565b60005b838110156200032c5780820151818401526020810190506200030f565b60008484015250505050565b60006200034f6200034984620002d6565b620002b7565b9050828152602081018484840111156200036e576200036d6200023c565b5b6200037b8482856200030c565b509392505050565b600082601f8301126200039b576200039a62000237565b5b8151620003ad84826020860162000338565b91505092915050565b6000819050919050565b620003cb81620003b6565b8114620003d757600080fd5b50565b600081519050620003eb81620003c0565b92915050565b600073ffffffffffffffffffffffffffffffffffffffff82169050919050565b60006200041e82620003f1565b9050919050565b620004308162000411565b81146200043c57600080fd5b50565b600081519050620004508162000425565b92915050565b60008060008060008060c087890312156200047657620004756200022d565b5b600087015167ffffffffffffffff81111562000497576200049662000232565b5b620004a589828a0162000383565b965050602087015167ffffffffffffffff811115620004c957620004c862000232565b5b620004d789828a0162000383565b9550506040620004ea89828a01620003da565b9450506060620004fd89828a01620003da565b935050608087015167ffffffffffffffff81111562000521576200052062000232565b5b6200052f89828a0162000383565b92505060a06200054289828a016200043f565b9150509295509295509295565b600081519050919050565b7f4e487b7100000000000000000000000000000000000000000000000000000000600052602260045260246000fd5b60006002820490506001821680620005a257607f821691505b602082108103620005b857620005b76200055a565b5b50919050565b60008190508160005260206000209050919050565b60006020601f8301049050919050565b600082821b905092915050565b600060088302620006227fffffffffffffffffffffffffffffffffffffffffffffffffffffffffffffffff82620005e3565b6200062e8683620005e3565b95508019841693508086168417925050509392505050565b6000819050919050565b6000620006716200066b6200066584620003b6565b62000646565b620003b6565b9050919050565b6000819050919050565b6200068d8362000650565b620006a56200069c8262000678565b848454620005f0565b825550505050565b600090565b620006bc620006ad565b620006c981848462000682565b505050565b5b81811015620006f157620006e5600082620006b2565b600181019050620006cf565b5050565b601f82111562000740576200070a81620005be565b6200071584620005d3565b8101602085101562000725578190505b6200073d6200073485620005d3565b830182620006ce565b50505b505050565b600082821c905092915050565b6000620007656000198460080262000745565b1980831691505092915050565b600062000780838362000752565b9150826002028217905092915050565b6200079b826200054f565b67ffffffffffffffff811115620007b757620007b662000252565b5b620007c3825462000589565b620007d0828285620006f5565b600060209050601f831160018114620008085760008415620007f3578287015190505b620007ff858262000772565b8655506200086f565b601f1984166200081886620005be565b60005b8281101562000842578489015182556001820191506020850194506020810190506200081b565b868310156200086257848901516200085e601f89168262000752565b8355505b6001600288020188555050505b505050505050565b620008828162000411565b82525050565b60006020820190506200089f600083018462000877565b92915050565b7f4e487b7100000000000000000000000000000000000000000000000000000000600052601260045260246000fd5b6000620008e182620003b6565b9150620008ee83620003b6565b925082620009015762000900620008a5565b5b828204905092915050565b611dde806200091c6000396000f3fe6080604052600436106101665760003560e01c806385a6b3ae116100d1578063d1a93d181161008a578063dd62ed3e11610064578063dd62ed3e146104ed578063de3aaf611461052a578063eec361f514610567578063f2fde38b1461057157610166565b8063d1a93d181461047b578063d24378eb14610497578063d5abeb01146104c257610166565b806385a6b3ae1461037b57806387269729146103a65780638cbe5104146103d15780638da5cb5b146103e857806395d89b4114610413578063a9059cbb1461043e57610166565b806324600fc31161012357806324600fc3146102a3578063313ce567146102ba57806368428a1b146102e557806370a0823114610310578063715018a61461034d5780637d8966e41461036457610166565b806303ee438c1461016b57806306fdde0314610196578063095ea7b3146101c157806309b6a740146101fe57806318160ddd1461023b57806323b872dd14610266575b600080fd5b34801561017757600080fd5b5061018061059a565b60405161018d919061167e565b60405180910390f35b3480156101a257600080fd5b506101ab610628565b6040516101b8919061167e565b60405180910390f35b3480156101cd57600080fd5b506101e860048036038101906101e39190611739565b6106ba565b6040516101f59190611794565b60405180910390f35b34801561020a57600080fd5b50610225600480360381019061022091906117af565b6106dd565b60405161023291906117eb565b60405180910390f35b34801561024757600080fd5b50610250610795565b60405161025d91906117eb565b60405180910390f35b34801561027257600080fd5b5061028d60048036038101906102889190611806565b61079f565b60405161029a9190611794565b60405180910390f35b3480156102af57600080fd5b506102b86107ce565b005b3480156102c657600080fd5b506102cf6108af565b6040516102dc9190611875565b60405180910390f35b3480156102f157600080fd5b506102fa6108b8565b6040516103079190611794565b60405180910390f35b34801561031c57600080fd5b50610337600480360381019061033291906117af565b6108cb565b60405161034491906117eb565b60405180910390f35b34801561035957600080fd5b50610362610913565b005b34801561037057600080fd5b50610379610927565b005b34801561038757600080fd5b5061039061095b565b60405161039d91906117eb565b60405180910390f35b3480156103b257600080fd5b506103bb610961565b6040516103c891906117eb565b60405180910390f35b3480156103dd57600080fd5b506103e6610967565b005b3480156103f457600080fd5b506103fd610a90565b60405161040a919061189f565b60405180910390f35b34801561041f57600080fd5b50610428610aba565b604051610435919061167e565b60405180910390f35b34801561044a57600080fd5b5061046560048036038101906104609190611739565b610b4c565b6040516104729190611794565b60405180910390f35b610495600480360381019061049091906118ba565b610b6f565b005b3480156104a357600080fd5b506104ac610cb3565b6040516104b991906117eb565b60405180910390f35b3480156104ce57600080fd5b506104d7610cb9565b6040516104e491906117eb565b60405180910390f35b3480156104f957600080fd5b50610514600480360381019061050f91906118e7565b610cbf565b60405161052191906117eb565b60405180910390f35b34801561053657600080fd5b50610551600480360381019061054c91906117af565b610d46565b60405161055e91906117eb565b60405180910390f35b61056f610d5e565b005b34801561057d57600080fd5b50610598600480360381019061059391906117af565b610dfa565b005b600a80546105a790611956565b80601f01602080910402602001604051908101604052809291908181526020018280546105d390611956565b80156106205780601f106105f557610100808354040283529160200191610620565b820191906000526020600020905b81548152906001019060200180831161060357829003601f168201915b505050505081565b60606003805461063790611956565b80601f016020809104026020016040519081016040528092919081815260200182805461066390611956565b80156106b05780601f10610685576101008083540402835291602001916106b0565b820191906000526020600020905b81548152906001019060200180831161069357829003601f168201915b5050505050905090565b6000806106c5610e80565b90506106d2818585610e88565b600191505092915050565b6000806106e8610795565b036106f65760009050610790565b6000610701836108cb565b9050600061070d610795565b82600b5461071b91906119b6565b6107259190611a27565b90506000600c60008673ffffffffffffffffffffffffffffffffffffffff1673ffffffffffffffffffffffffffffffffffffffff16815260200190815260200160002054905080821161077e5760009350505050610790565b808261078a9190611a58565b93505050505b919050565b6000600254905090565b6000806107aa610e80565b90506107b7858285610e9a565b6107c2858585610f2f565b60019150509392505050565b6107d6611023565b60004790506000811161081e576040517f08c379a000000000000000000000000000000000000000000000000000000000815260040161081590611ad8565b60405180910390fd5b610826610a90565b73ffffffffffffffffffffffffffffffffffffffff166108fc829081150290604051600060405180830381858888f1935050505015801561086b573d6000803e3d6000fd5b507feaff4b37086828766ad3268786972c0cd24259d4c87a80f9d3963a3c3d999b0d610895610a90565b826040516108a4929190611af8565b60405180910390a150565b60006012905090565b600960009054906101000a900460ff1681565b60008060008373ffffffffffffffffffffffffffffffffffffffff1673ffffffffffffffffffffffffffffffffffffffff168152602001908152602001600020549050919050565b61091b611023565b61092560006110aa565b565b61092f611023565b600960009054906101000a900460ff1615600960006101000a81548160ff021916908315150217905550565b600b5481565b60075481565b6000610972336106dd565b9050600081116109b7576040517f08c379a00000000000000000000000000000000000000000000000000000000081526004016109ae90611b6d565b60405180910390fd5b80600c60003373ffffffffffffffffffffffffffffffffffffffff1673ffffffffffffffffffffffffffffffffffffffff1681526020019081526020016000206000828254610a069190611b8d565b925050819055503373ffffffffffffffffffffffffffffffffffffffff166108fc829081150290604051600060405180830381858888f19350505050158015610a53573d6000803e3d6000fd5b507f5efa67896a23b651b741b525caacba039c00ca7853be3de8eb1f4269e8669c563382604051610a85929190611af8565b60405180910390a150565b6000600560009054906101000a900473ffffffffffffffffffffffffffffffffffffffff16905090565b606060048054610ac990611956565b80601f0160208091040260200160405190810160405280929190818152602001828054610af590611956565b8015610b425780601f10610b1757610100808354040283529160200191610b42565b820191906000526020600020905b815481529060010190602001808311610b2557829003601f168201915b5050505050905090565b600080610b57610e80565b9050610b64818585610f2f565b600191505092915050565b600960009054906101000a900460ff16610bbe576040517f08c379a0000000000000000000000000000000000000000000000000000000008152600401610bb590611c0d565b60405180910390fd5b60085481610bca610795565b610bd49190611b8d565b1115610c15576040517f08c379a0000000000000000000000000000000000000000000000000000000008152600401610c0c90611c79565b60405180910390fd5b600060075482610c2591906119b6565b905080341015610c6a576040517f08c379a0000000000000000000000000000000000000000000000000000000008152600401610c6190611ce5565b60405180910390fd5b610c743383611170565b7f247dc2e589ef4622e21f97439ad5d61b6fe14885a30102fa2dcde37f197db045338383604051610ca793929190611d05565b60405180910390a15050565b60065481565b60085481565b6000600160008473ffffffffffffffffffffffffffffffffffffffff1673ffffffffffffffffffffffffffffffffffffffff16815260200190815260200160002060008373ffffffffffffffffffffffffffffffffffffffff1673ffffffffffffffffffffffffffffffffffffffff16815260200190815260200160002054905092915050565b600c6020528060005260406000206000915090505481565b6000610d68610795565b11610da8576040517f08c379a0000000000000000000000000000000000000000000000000000000008152600401610d9f90611d88565b60405180910390fd5b34600b6000828254610dba9190611b8d565b925050819055507f0554f6ce12b72bcfc5749cb0bd2942ee975da3632a583f00b17949d949943ec334604051610df091906117eb565b60405180910390a1565b610e02611023565b600073ffffffffffffffffffffffffffffffffffffffff168173ffffffffffffffffffffffffffffffffffffffff1603610e745760006040517f1e4fbdf7000000000000000000000000000000000000000000000000000000008152600401610e6b919061189f565b60405180910390fd5b610e7d816110aa565b50565b600033905090565b610e9583838360016111f2565b505050565b6000610ea68484610cbf565b90507fffffffffffffffffffffffffffffffffffffffffffffffffffffffffffffffff811015610f295781811015610f19578281836040517ffb8f41b2000000000000000000000000000000000000000000000000000000008152600401610f1093929190611d05565b60405180910390fd5b610f28848484840360006111f2565b5b50505050565b600073ffffffffffffffffffffffffffffffffffffffff168373ffffffffffffffffffffffffffffffffffffffff1603610fa15760006040517f96c6fd1e000000000000000000000000000000000000000000000000000000008152600401610f98919061189f565b60405180910390fd5b600073ffffffffffffffffffffffffffffffffffffffff168273ffffffffffffffffffffffffffffffffffffffff16036110135760006040517fec442f0500000000000000000000000000000000000000000000000000000000815260040161100a919061189f565b60405180910390fd5b61101e8383836113c9565b505050565b61102b610e80565b73ffffffffffffffffffffffffffffffffffffffff16611049610a90565b73ffffffffffffffffffffffffffffffffffffffff16146110a85761106c610e80565b6040517f118cdaa700000000000000000000000000000000000000000000000000000000815260040161109f919061189f565b60405180910390fd5b565b6000600560009054906101000a900473ffffffffffffffffffffffffffffffffffffffff16905081600560006101000a81548173ffffffffffffffffffffffffffffffffffffffff021916908373ffffffffffffffffffffffffffffffffffffffff1602179055508173ffffffffffffffffffffffffffffffffffffffff168173ffffffffffffffffffffffffffffffffffffffff167f8be0079c531659141344cd1fd0a4f28419497f9722a3daafe3b4186f6b6457e060405160405180910390a35050565b600073ffffffffffffffffffffffffffffffffffffffff168273ffffffffffffffffffffffffffffffffffffffff16036111e25760006040517fec442f050000000000000000000000000000000000000000000000000000000081526004016111d9919061189f565b60405180910390fd5b6111ee600083836113c9565b5050565b600073ffffffffffffffffffffffffffffffffffffffff168473ffffffffffffffffffffffffffffffffffffffff16036112645760006040517fe602df0500000000000000000000000000000000000000000000000000000000815260040161125b919061189f565b60405180910390fd5b600073ffffffffffffffffffffffffffffffffffffffff168373ffffffffffffffffffffffffffffffffffffffff16036112d65760006040517f94280d620000000000000000000000000000000000000000000000000000000081526004016112cd919061189f565b60405180910390fd5b81600160008673ffffffffffffffffffffffffffffffffffffffff1673ffffffffffffffffffffffffffffffffffffffff16815260200190815260200160002060008573ffffffffffffffffffffffffffffffffffffffff1673ffffffffffffffffffffffffffffffffffffffff1681526020019081526020016000208190555080156113c3578273ffffffffffffffffffffffffffffffffffffffff168473ffffffffffffffffffffffffffffffffffffffff167f8c5be1e5ebec7d5bd14f71427d1e84f3dd0314c0f7b2291e5b200ac8c7c3b925846040516113ba91906117eb565b60405180910390a35b50505050565b600073ffffffffffffffffffffffffffffffffffffffff168373ffffffffffffffffffffffffffffffffffffffff160361141b57806002600082825461140f9190611b8d565b925050819055506114ee565b60008060008573ffffffffffffffffffffffffffffffffffffffff1673ffffffffffffffffffffffffffffffffffffffff168152602001908152602001600020549050818110156114a7578381836040517fe450d38c00000000000000000000000000000000000000000000000000000000815260040161149e93929190611d05565b60405180910390fd5b8181036000808673ffffffffffffffffffffffffffffffffffffffff1673ffffffffffffffffffffffffffffffffffffffff16815260200190815260200160002081905550505b600073ffffffffffffffffffffffffffffffffffffffff168273ffffffffffffffffffffffffffffffffffffffff16036115375780600260008282540392505081905550611584565b806000808473ffffffffffffffffffffffffffffffffffffffff1673ffffffffffffffffffffffffffffffffffffffff168152602001908152602001600020600082825401925050819055505b8173ffffffffffffffffffffffffffffffffffffffff168373ffffffffffffffffffffffffffffffffffffffff167fddf252ad1be2c89b69c2b068fc378daa952ba7f163c4a11628f55a4df523b3ef836040516115e191906117eb565b60405180910390a3505050565b600081519050919050565b600082825260208201905092915050565b60005b8381101561162857808201518184015260208101905061160d565b60008484015250505050565b6000601f19601f8301169050919050565b6000611650826115ee565b61165a81856115f9565b935061166a81856020860161160a565b61167381611634565b840191505092915050565b600060208201905081810360008301526116988184611645565b905092915050565b600080fd5b600073ffffffffffffffffffffffffffffffffffffffff82169050919050565b60006116d0826116a5565b9050919050565b6116e0816116c5565b81146116eb57600080fd5b50565b6000813590506116fd816116d7565b92915050565b6000819050919050565b61171681611703565b811461172157600080fd5b50565b6000813590506117338161170d565b92915050565b600080604083850312156117505761174f6116a0565b5b600061175e858286016116ee565b925050602061176f85828601611724565b9150509250929050565b60008115159050919050565b61178e81611779565b82525050565b60006020820190506117a96000830184611785565b92915050565b6000602082840312156117c5576117c46116a0565b5b60006117d3848285016116ee565b91505092915050565b6117e581611703565b82525050565b600060208201905061180060008301846117dc565b92915050565b60008060006060848603121561181f5761181e6116a0565b5b600061182d868287016116ee565b935050602061183e868287016116ee565b925050604061184f86828701611724565b9150509250925092565b600060ff82169050919050565b61186f81611859565b82525050565b600060208201905061188a6000830184611866565b92915050565b611899816116c5565b82525050565b60006020820190506118b46000830184611890565b92915050565b6000602082840312156118d0576118cf6116a0565b5b60006118de84828501611724565b91505092915050565b600080604083850312156118fe576118fd6116a0565b5b600061190c858286016116ee565b925050602061191d858286016116ee565b9150509250929050565b7f4e487b7100000000000000000000000000000000000000000000000000000000600052602260045260246000fd5b6000600282049050600182168061196e57607f821691505b60208210810361198157611980611927565b5b50919050565b7f4e487b7100000000000000000000000000000000000000000000000000000000600052601160045260246000fd5b60006119c182611703565b91506119cc83611703565b92508282026119da81611703565b915082820484148315176119f1576119f0611987565b5b5092915050565b7f4e487b7100000000000000000000000000000000000000000000000000000000600052601260045260246000fd5b6000611a3282611703565b9150611a3d83611703565b925082611a4d57611a4c6119f8565b5b828204905092915050565b6000611a6382611703565b9150611a6e83611703565b9250828203905081811115611a8657611a85611987565b5b92915050565b7f4e6f2066756e6473000000000000000000000000000000000000000000000000600082015250565b6000611ac26008836115f9565b9150611acd82611a8c565b602082019050919050565b60006020820190508181036000830152611af181611ab5565b9050919050565b6000604082019050611b0d6000830185611890565b611b1a60208301846117dc565b9392505050565b7f4e6f2072656e7420746f20636c61696d00000000000000000000000000000000600082015250565b6000611b576010836115f9565b9150611b6282611b21565b602082019050919050565b60006020820190508181036000830152611b8681611b4a565b9050919050565b6000611b9882611703565b9150611ba383611703565b9250828201905080821115611bbb57611bba611987565b5b92915050565b7f53616c65206973204e4f54206163746976650000000000000000000000000000600082015250565b6000611bf76012836115f9565b9150611c0282611bc1565b602082019050919050565b60006020820190508181036000830152611c2681611bea565b9050919050565b7f536f6c64206f7574000000000000000000000000000000000000000000000000600082015250565b6000611c636008836115f9565b9150611c6e82611c2d565b602082019050919050565b60006020820190508181036000830152611c9281611c56565b9050919050565b7f4e6f7420656e6f756768204554482073656e7400000000000000000000000000600082015250565b6000611ccf6013836115f9565b9150611cda82611c99565b602082019050919050565b60006020820190508181036000830152611cfe81611cc2565b9050919050565b6000606082019050611d1a6000830186611890565b611d2760208301856117dc565b611d3460408301846117dc565b949350505050565b7f4e6f207368617265686f6c646572732079657400000000000000000000000000600082015250565b6000611d726013836115f9565b9150611d7d82611d3c565b602082019050919050565b60006020820190508181036000830152611da181611d65565b905091905056fea26469706673582212207c5785ead224d208701902854e3e99b23e084813a66c0395c5f633ee3b57f4f164736f6c63430008140033",
  "linkReferences": {},
  "deployedLinkReferences": {}
}